:020000040800F2
:1000000038080020291E0008D9040008DB04000875
:10001000DF040008E3040008E70400080000000013
:10002000000000000000000000000000EB040008D9
:10003000ED04000800000000EF040008F1040008CF
:10004000431E0008431E0008431E0008431E00080C
:10005000431E0008431E0008431E0008431E0008FC
:10006000431E00085B1500088B150008431E00089E
:10007000431E0008431E0008431E0008431E0008DC
:10008000431E0008431E0008431E0008431E0008CC
:10009000431E0008431E0008431E0008431E0008BC
:1000A000431E0008431E0008431E0008431E0008AC
:1000B00083170008F3160008431E0008431E0008BB
:1000C000431E0008431E0008431E0008431E00088C
:1000D000431E0008FB19000889370008431E00086A
:1000E000431E0008431E0008431E0008431E00086C
:1000F000431E0008431E0008431E0008431E00085C
:10010000431E0008431E0008431E0008431E00084B
:10011000431E0008431E0008431E0008431E00083B
:10012000431E0008431E0008431E0008431E00082B
:1001300000F002F800F094F80AA090E8000C824465
:100140008344AAF10107DA4501D100F089F8AFF242
:10015000090EBAE80F0013F0010F18BFFB1A43F0A5
:10016000010318478CA50000ACA50000103A24BF7D
:1001700078C878C1FAD8520724BF30C830C144BF0C
:1001800004680C607047000000230024002500264E
:10019000103A28BF78C1FBD8520728BF30C148BFEA
:1001A0000B6070476E2907F01780702906F0E58410
:1001B000662909F06286652909F05F86672909F0DA
:1001C0005C866129AFF3008003681B0A28BF41F0F9
:1001D0008001692906F05684642906F05384752944
:1001E00006F050846F2907F01483782906F0B18453
:1001F000E92907F0AF82E42907F0AC82F52907F07E
:10020000A982EF2907F01183F82906F0B08403686A
:10021000DB0928BF41F08001632907F03082732990
:1002200007F03582E32907F0F583F32907F0FA8315
:10023000002070471FB59DE8030006F021FF07F07E
:100240003BFB04000020002108F084FF401C60609C
:100250000020002108F094FFE0601FBD10B510BD24
:1002600007F0CEFC1146FFF7E5FF00F009F807F0B4
:10027000FAFC03B4FFF7F2FF03BC07F06BFD0000CC
:100280000EB50025002401F09DF94FF4A06001F0A7
:10029000EBFD00F01FFA01F017F900F041FA01F050
:1002A000F1F800F054FB4FF4E13001F0C5FA4FF4DF
:1002B000E13001F014FB00F071FD00F014FD00F0DE
:1002C0000AFC41F61F4141F2873001F02CFA41F659
:1002D0001F4140F6C31001F0DFF951A1554801F06C
:1002E00068FB03F0C7F903E04FF4FA7001F0A7F9D7
:1002F00004F00AFA0028F7D101204F490860FA20DB
:1003000001F09DF900204D49C1F8A00101214C48A0
:1003100004F064FA07E04BA20821012000F027FC5A
:10032000C82001F08CF900F012FB0028F3D175E031
:10033000282095FBF0F100FB1150002838D14449EA
:10034000444800F0D8FA00F03CFD434908700846E4
:10035000007800903E4803783E4802783FA1354837
:1003600001F027FB2021444801F0DFFE43490870DB
:10037000434800780A2812D13548007850280BDA13
:10038000344800781E2807DA334800780A2803DA50
:1003900000203C49087002E001203A4908703848C2
:1003A00000780A2804DA36480078401C344908707E
:1003B000681C80B20546C82825DB20212E4801F0A4
:1003C000B4FE2E49087030A11A4801F0F2FA2D4807
:1003D00000782A49097809B9012100E000211E4A64
:1003E0001278CDE900210290194803781948027863
:1003F0002AA1374806F0E0FA3549364804F016FAE3
:10040000002503F0BBF8032003F013F9044614B1F0
:10041000204604F036FA0A2001F011F988E70000BE
:1004200020486172647761726520696E6974204F3B
:100430004B0D0A0000380140A0812142008021427A
:10044000080000204448543131204572726F720018
:10045000040000200300002005000020CEC2B6C822
:100460003A25642020CAAAB6C83A25642020B9E2F9
:10047000D5D53A25640D0A00000C01400600002085
:1004800001000020000000204F6E654E65745F5033
:1004900075626C6973680D0A000000007B22546568
:1004A0006D70223A25642C2248756D223A25642C01
:1004B000224C69676874223A25642C224C656422B8
:1004C0003A25642C2242656570223A25647D00003D
:1004D0004C0000206E9F0008704700BFFEE700BF81
:1004E000FEE700BFFEE700BFFEE7704770477047BA
:1004F000704700000CB50020019000906C48006827
:1005000040F480306A49086000BF6948006800F420
:10051000003000900198401C0190009818B9019893
:10052000B0F5A06FF1D16248006800F4003010B15E
:100530000120009001E0002000900098012843D1A4
:100540005C48006840F010005A490860084600689E
:1005500020F0030008600846006840F002000860D0
:100560005348406852494860084640684860084619
:10057000406840F4806048600846406820F47C1081
:1005800048600846406840F4E81048600846006843
:1005900040F08070086000BF4548006800F00070BF
:1005A0000028F9D04248406820F0030040494860E4
:1005B0000846406840F00200486000BF3C48406880
:1005C00000F00C000828F9D10CBD10B5FFF792FF20
:1005D00010BD10B53648006840F00100344908608D
:1005E0000846406834490840314948600846006878
:1005F000324908402E4908600846006820F48020EF
:1006000008600846406820F4FE0048604FF41F0070
:100610008860FFF7DAFF4FF000602949086010BDDD
:1006200010B5002100200022214B5B6803F00C0173
:1006300021B1042906D0082928D107E0214B224CFA
:10064000236027E01F4B204C236023E0184B5B689E
:1006500003F47010164B5B6803F48032022303EB43
:10066000904022B9194B4343174C23600DE0104BC7
:100670005B6803F4003323B1144B4343124C2360F3
:1006800003E0104B4343104C236003E00D4B0E4C32
:10069000236000BF00BF064B5B68C3F303130C4C21
:1006A000E15C094B1B68CB40074C236010BD000088
:1006B00000100240002002400000FFF8FFFFF6FE9D
:1006C00008ED00E000127A000C00002000093D0057
:1006D0001000002008B50121482001F04FFF202024
:1006E000ADF8000010208DF8030003208DF8020003
:1006F0006946094801F086FC2021074801F02FFDDA
:100700002020ADF800006946044801F07BFC202160
:10071000024801F024FD08BD000C01400018014012
:1007200008B50121442001F029FF1820ADF8000090
:1007300048208DF8030069462C4801F063FC012035
:10074000ADF8000028208DF803006946284801F024
:1007500059FC08BD10B5044614B1012025490870A4
:100760002448007858B31021204801F0DEFC50B135
:1007700008211E4801F0D9FC28B101211C4801F0D4
:10078000D4FC01281BD10A2000F059FF0020194990
:1007900008701021154801F0C8FC08B9012010BDEF
:1007A0000821124801F0C1FC08B90220F7E7012135
:1007B0000F4801F0BAFC012815D10320EFE7102102
:1007C0000A4801F0B2FC01280DD10821074801F0C8
:1007D000ACFC012807D10121054801F0A6FC10B9A5
:1007E0000120044908700020D9E7000000180140EA
:1007F000000801402000002010B56348406820F444
:100800007040614948600846406840F44050486084
:1008100000205E490860142000F011FF01205C49AF
:10082000C1F8AC011E2000F0E6FE10BD10B500249A
:100830005548406820F47040534948600846406875
:1008400040F40040486004E0601CC4B2012000F0A5
:10085000D2FE4E488038006808B1642CF4DB642C6A
:1008600001DB012010BD002404E0601CC4B20120A3
:1008700000F0C1FE45488038006808B9642CF4DBFC
:10088000642C01DB0120EDE70020EBE710B500242C
:1008900004E0601CC4B2012000F0ADFE3B4880388B
:1008A000006808B1642CF4DB002404E0601CC4B2CE
:1008B000012000F0A0FE35488038006808B9642C9B
:1008C000F4DB282000F097FE30488038006808B13B
:1008D000012010BD0020FCE770B50024002506E0D3
:1008E0006006040EFFF7D2FF0443681CC5B2082D52
:1008F000F6DB204670BD7CB505460E46FFF77CFF53
:10090000FFF794FFF8B9002405E0FFF7E5FF0DF8C5
:100910000400601CC4B2052CF7DB9DF800009DF8B4
:10092000011008449DF8021008449DF80310084483
:100930009DF80410884208D19DF8000030709DF8A1
:100940000200287001E001207CBD0020FCE708B512
:100950000121080201F012FE4FF40060ADF8000022
:1009600010208DF8030003208DF802006946064828
:1009700001F048FB4FF40061034801F0F0FBFFF782
:100980003BFFFFF753FF08BD00200140AC012442AC
:100990000000244208B50121082001F0EFFD1420D9
:1009A0008DF8030003208DF802004020ADF8000010
:1009B0006946F84801F026FB8020ADF80000694642
:1009C000F44801F01FFB01224021F24801F0CBFB6B
:1009D00001228021EF4801F0C6FB08BD10B50122BD
:1009E0008021EC4801F0BFFB01224021E94801F0E1
:1009F000BAFB00228021E74801F0B5FB002240212C
:100A0000E44801F0B0FB10BD10B500228021E148A0
:100A100001F0A9FB01224021DE4801F0A4FB0122E4
:100A20008021DC4801F09FFB10BD70B50546002415
:100A300013E08020204100EA05028021D54801F022
:100A400092FB01224021D34801F08DFB002240217E
:100A5000D04801F088FB601CC4B2082CE9DB0122FD
:100A60004021CC4801F07FFB00224021C94801F021
:100A70007AFB70BD10B50446FFF7B0FF7820FFF792
:100A8000D4FF0020FFF7D1FF2046FFF7CEFFFFF78E
:100A9000BBFF10BD10B50446FFF7A0FF7820FFF79D
:100AA000C4FF4020FFF7C1FF2046FFF7BEFFFFF75E
:100AB000ABFF10BD70B505460C4645F0B000FFF722
:100AC000D9FF102141EA1410FFF7D4FF04F00F0002
:100AD000FFF7D0FF70BD70B500240EE00021204666
:100AE000FFF7E8FF002504E00020FFF7D3FF681CB4
:100AF000C5B2802DF8DB601CC4B2082CEEDB70BDE3
:100B00002DE9F04105460E461746721ED206110E1B
:100B10006A1E5206100EFFF7CDFF002409E0A7F170
:100B200020019D4A02EB0111085DFFF7B3FF601C35
:100B3000C4B2082CF3DB721ED206110E6A1E01230A
:100B400003EB4202D0B2FFF7B5FF00240BE0A7F1A0
:100B50002001914A02EB011204F10801505CFFF7F9
:100B600099FF601CC4B2082CF1DBBDE8F0812DE9CF
:100B7000F04107460E461546002407E02A5D30196D
:100B8000C1B23846FFF7BCFF601CC4B2285D002824
:100B9000F4D1BDE8F08110B50246012000E05043D9
:100BA0000B1EA1F10101FAD110BD2DE9F0478046DD
:100BB0000E4617461D46002415E0281B411E0A203C
:100BC000FFF7E9FFB7FBF0F00A21B0FBF1F201FB00
:100BD000120000F130093019C1B24A464046FFF711
:100BE0008FFF601CC4B2AC42E7DBBDE8F0872DE9A3
:100BF000F0478146884615461E46002D06DB2B220F
:100C000041464846FFF77CFF2F4605E02D2241462E
:100C10004846FFF775FF6F42002417E0301B411E66
:100C20000A20FFF7B8FFB7FBF0F00A21B0FBF1F2A2
:100C300001FB120000F1300A08EB0400401CC1B2B5
:100C400052464846FFF75CFF601CC4B2B442E5DB85
:100C5000BDE8F0872DE9F04781460E4690461F46D5
:100C600000241DE0381B411E1020FFF794FFB8FB45
:100C7000F0F000F00F050A2D08DA05F13000C2B2DD
:100C80003019C1B24846FFF73BFF07E005F13700D6
:100C9000C2B23019C1B24846FFF732FF601CC4B27D
:100CA000BC42DFDBBDE8F0872DE9F04780460E4609
:100CB00017461D46002412E0281B411E0220FFF7A4
:100CC0006AFFB7FBF0F000F0010000F130093019C5
:100CD000C1B24A464046FFF713FF601CC4B2AC42A3
:100CE000EADBBDE8F08770B5002406E0002500E0EF
:100CF0006D1CB5F57A7FFBD3641CB4F57A7FF5D310
:100D0000FFF748FEAE20FFF7B5FED520FFF7B2FE95
:100D10008020FFF7AFFEA820FFF7ACFE3F20FFF7D3
:100D2000A9FED320FFF7A6FE0020FFF7A3FE402078
:100D3000FFF7A0FEA120FFF79DFEC820FFF79AFE57
:100D4000DA20FFF797FE1220FFF794FE8120FFF7CD
:100D500091FECF20FFF78EFED920FFF78BFEF1200A
:100D6000FFF788FEDB20FFF785FE3020FFF782FECD
:100D7000A420FFF77FFEA620FFF77CFE8D20FFF763
:100D800079FE1420FFF776FEAF20FFF773FEFFF722
:100D9000A2FE70BD000C0140809F000808B5012133
:100DA000802001F0EBFB4FF48070ADF800000020D4
:100DB0008DF803006946124801F024F900F0D5F8D7
:100DC00008BD70B50024002508E0062000F009F9F0
:100DD0000444052000F033FC681CC5B20A2DF4DB86
:100DE0000A20B4FBF0F4B4F57A6F01D94FF47A64B9
:100DF0002820B4FBF0F0C0F16400C0B270BD000068
:100E0000001C014000B585B001214FF4017001F0D4
:100E1000B5FB4FF4004001F015FB7D4800F00AF9E6
:100E2000002000908DF804008DF805004FF460203C
:100E300002900020039001208DF81000694674484C
:100E400000F01FF9012000F0D9FA0121704800F0EC
:100E500044F96F4800F063F900BF6D4800F064F991
:100E60000028FAD16A4800F069F900BF684800F02C
:100E70006AF90028FAD105B000BD10B50446072371
:100E800001222146624800F094F90121604800F0F7
:100E900064F900BF02215E4800F0D0FA0028F9D0C2
:100EA0005B4800F0EDF910BD70B50024002509E0A5
:100EB0001020FFF7E2FF204484B2052000F0BFFBC2
:100EC000681CC5B20A2DF3DB0A2094FBF0F080B257
:100ED00070BD2DE9F04107460C460025002608E0CC
:100EE0003846FFF7CAFF0544052000F0A8FB701C38
:100EF000C6B2A642F4DBB5FBF4F080B2BDE8F081E7
:100F00002DE9F05F14211020FFF7E3FF83465846D8
:100F100008F05AFF804608F02BFF06464FF0663275
:100F20003C4B08F015FC04460D4622462B463A4839
:100F30003A4908F033FE8046394A3A4B08F0F2F954
:100F400006460022384B08F031F904460D460022CF
:100F5000364B2046294608F0FBFB064608F076FB98
:100F60000FFA80FA5046BDE8F09F00B585B0012128
:100F7000C80301F003FB0121C80301F019FB0021A4
:100F80004FF4004001F014FB294800F053F8002012
:100F900000908DF804008DF805004FF46020029059
:100FA0000020039001208DF810006946204800F0D1
:100FB00068F801211E4800F090F81D4800F0AFF8D5
:100FC00000BF1B4800F0B0F80028FAD1184800F024
:100FD000B5F800BF164800F0B6F80028FAD105B001
:100FE00000BD10B50446072301222146104800F039
:100FF000E0F801210E4800F0B0F800BF02210C48D3
:1010000000F01CFA0028F9D0094800F039F910BDA9
:101010000024014066664A3FE17A14AE47E1F63F9C
:1010200022FDF675E09C713F0000394000005940F8
:10103000003C014010B50446FA48844208D1012121
:10104000401501F0B5FA0021601501F0B1FA17E082
:10105000F548844208D10121001501F0A9FA0021C8
:10106000201501F0A5FA0BE0F048844208D10121D7
:10107000C80301F09DFA00214FF4004001F098FAF6
:1010800010BD30B50246002000235068E84C2040D7
:101090000D790C6844EA0524204350609068E54CC3
:1010A0002040D1E902542C434D7944EA45042043C1
:1010B0009060D06A20F470000C7C641EE4B223437C
:1010C00040EA0350D06230BD0021016001714171DE
:1010D0008160C16001210174704721B1826842F0D2
:1010E0000102826003E0826822F0010282607047A0
:1010F00021B1826842F48072826003E0826822F447
:1011000080728260704710B50023CBB21AB1446878
:101110001C43446002E044689C43446010BD816805
:1011200041F0080181607047014600208A6802F0A2
:1011300008020AB1012000E000207047816841F0F8
:10114000040181607047014600208A6802F00402B1
:101150000AB1012000E00020704721B1826842F40A
:10116000A002826003E0826822F4A00282607047DD
:10117000014600208A6802F480020AB1012000E0E2
:101180000020704710B50A4600210023416821F471
:101190006041531E41EA4331416010BD21B14268B4
:1011A00042F40062426003E0426822F4006242605E
:1011B0007047F0B504460D4600200021092D11DDD1
:1011C000E068A5F10A0606EB4607072606FA07F1CE
:1011D0008843A5F10A0606EB460603FA06F1084322
:1011E000E0600CE0206905EB4507072606FA07F1E9
:1011F000884305EB450603FA06F108432061072AF8
:101200000FDA606B561E06EB86071F2606FA07F1FB
:101210008843561E06EB860605FA06F1084360630E
:1012200022E00D2A0FDA206BD61F06EB86071F2659
:1012300006FA07F18843D61F06EB860605FA06F183
:101240000843206310E0E06AA2F10D0606EB860772
:101250001F2606FA07F18843A2F10D0606EB860663
:1012600005FA06F10843E062F0BD21B1826842F45C
:101270008012826003E0826822F4801282607047EC
:101280000146C86C80B2704766484C3000687047B1
:1012900021B1426842F48062426003E0426822F475
:1012A00080624260704721B1426842F480524260DD
:1012B00003E0426822F48052426070470A460021EF
:1012C000816821F4E04111438160704721B1826857
:1012D00042F40042826003E0826822F400428260AD
:1012E000704721B1826842F40212826003E0826892
:1012F00022F4021282607047014600208A6802F4DC
:1013000000120AB1012000E000207047F0B5044649
:101310001546002000220026092911DDE068A1F110
:101320000A0707EB470C072707FA0CF29043A1F1D5
:101330000A0707EB470703FA07F21043E0600CE0E7
:10134000206901EB410C072707FA0CF2904301EBEF
:10135000410703FA07F210432061A06BC0F3015666
:10136000EF1C06F1010CA7EB0C0707EB870C1F27FE
:1013700007FA0CF29043EF1C06F1010CA7EB0C07E7
:1013800007EB870701FA07F21043A063F0BD10B521
:101390000A4600210023816B21F44011531E41EACB
:1013A0000351816310BD08B5002300930090009B9A
:1013B0000B440093009B1A6008BD08B5024600204C
:1013C0000090009201F12800009B184400900098C2
:1013D000006880B208BD0A4600214168164B1940DA
:1013E0001143416070474162826270470A460021A2
:1013F000416821F01F0111434160704740B1094924
:101400000831096841F40001064A0832116007E01A
:1014100004490831096821F40001024A08321160C8
:10142000704700000024014000280140003C0140BA
:10143000FFFEF0FFFDF7F1FFFFFD3FFF024600203A
:1014400013680B400BB1012000E000207047CA4335
:101450000260704770B502460020002300240B1282
:101460005568CEB205EA060415681D4015B10CB1E9
:10147000012000E0002070BD00220A12D343036067
:101480007047000008B50121082001F077F84FF4FB
:101490008070ADF8000010208DF8030003208DF857
:1014A00002006946074800F0ADFD4FF48071054821
:1014B00000F057FE08BD10B54FF48071014800F0F0
:1014C0004EFE10BD000C01400EB5FFF729F90121B9
:1014D000084601F053F80321042000F0A9FE08207B
:1014E000019000208DF808000C208DF8090001A85B
:1014F00001F0C4FF0421084600F09AFE102001907C
:1015000001A801F0BBFF0021084600F091FE012078
:10151000019008208DF8090001A801F0AFFF092013
:101520008DF8000002208DF8010001208DF80200E6
:101530008DF80300684600F09CFC0A208DF800003E
:1015400002208DF8010000208DF8020001208DF8A6
:101550000300684600F08DFC0EBD10B50A2000F0B7
:101560006EF80821134800F0E0FD50B912480068F9
:1015700008B9012000E000200F49086000200F4951
:101580000860082001F0F1FF10BD10B50A2000F03E
:1015900056F81021074800F0C8FD38B9084800681F
:1015A00008B9012000E0002005490860102001F082
:1015B000DCFF10BD001801400000002001000020E9
:1015C0009481214210B56FF0040000F09CFC2E487D
:1015D00000682E49B0FBF1F02D49087008460078EC
:1015E00000EB4001C1EBC0104FF6FF7101EAC000F3
:1015F0002849088010BD0146254A12784A434FF019
:10160000E0235A6100229A611A46126942F00102EF
:101610001A6100BF4FF0E022106900F001021AB118
:1016200000F48032002AF5D04FF0E022126922F057
:1016300001024FF0E0231A6100229A6170470146CF
:10164000144A12884A434FF0E0235A6100229A61FB
:101650001A46126942F001021A6100BF4FF0E022FF
:10166000106900F001021AB100F48032002AF5D0AE
:101670004FF0E022126922F001024FF0E0231A61DC
:1016800000229A61704700000C00002000127A00CE
:1016900022000020240000207FB505460C460121D1
:1016A000022000F078FFADF80850ADF804400020AB
:1016B000ADF80A00ADF8060001A94B4801F096F814
:1016C00001221146484801F008FC1D208DF8000059
:1016D00000208DF8010003208DF8020001208DF814
:1016E0000300684600F0C5FB01213F4801F0DAFB2A
:1016F0007FBD10B501213C4801F09DFE90B1012154
:10170000394801F0A9FE3948007840B138480068EE
:1017100008B9012000E000203549086002E00020FF
:101720003349086010BD7FB505460C4601210846C7
:1017300000F031FFADF80850ADF804400020ADF8DE
:101740000A00ADF8060001A94FF0804001F04EF804
:1017500001221146900701F0C0FB1C208DF800000B
:1017600000208DF8010003208DF8020001208DF883
:101770000300684600F07DFB0121880701F092FB21
:101780007FBD10B50121880701F055FE002829D042
:101790000121880701F060FE16A204210120FFF755
:1017A000E6F91648027816A1184805F005F9174A17
:1017B00001210220FFF7DBF91548027815A1134833
:1017C00005F0FAF8114A01210320FFF7D0F9154876
:1017D000027815A10D4805F0EFF80C4A012104200C
:1017E000FFF7C5F910BD0000000400400000002014
:1017F0009401234257656C636F6D65000300002000
:1018000054656D703A202025642043004C0100206F
:101810000400002048756D69643A20256420252560
:1018200000000000050000204C696768743A20251C
:1018300064206C780000000010B586B004460121D9
:10184000042000F09BFE0121880300F097FE182081
:101850008DF817004FF40070ADF8140003208DF8D8
:10186000160005A96B4800F0CDFB04208DF8170089
:101870000002ADF8140003208DF8160005A9654894
:1018800000F0C0FB01940020ADF810000C20ADF872
:101890000E000020ADF80C00ADF80A00ADF808000D
:1018A00001A95D4800F0FFF801215B4800F087F9CD
:1018B000012240F22551584800F08DF925208DF87D
:1018C000000001208DF8030000208DF801000220A7
:1018D0008DF80200684600F0CCFA06B010BD10B5D5
:1018E00086B004460121042000F048FE012148048E
:1018F00000F051FE18208DF817000420ADF81400F8
:1019000003208DF8160005A9424800F07BFB042057
:101910008DF817000820ADF8140003208DF816008C
:1019200005A93C4800F06EFB01940020ADF81000C2
:101930000C20ADF80E000020ADF80C00ADF80A0048
:10194000ADF8080001A9354800F0ADF80121334891
:1019500000F035F9012240F22551304800F03BF902
:1019600026208DF8000001208DF8030000208DF85E
:1019700001008DF80200684600F07BFA06B010BD49
:101980002DE9F04107460C46154600260DE014F8F7
:10199000011B384600F080F900BF4021384600F0B6
:1019A000E9F90028F9D0701C86B2AE42EFDBBDE841
:1019B000F0810FB430B5CBB0054601AC50A8009013
:1019C0004FF4947101A8009B4F9A04F0DBFF0020B4
:1019D00000900BE014F8011B284600F05DF900BFF1
:1019E0004021284600F0C6F90028F9D020780028C8
:1019F000F0D14BB030BC5DF814FB10B540F225516E
:101A0000054800F0CDF918B12021034800F0BFF9D6
:101A100010BD0000000801400038014000440040B3
:101A200010B50446FB48844209D10121880300F027
:101A3000BFFD00214FF4804000F0BAFD32E0F648CF
:101A4000844209D10121480400F0BFFD00214FF478
:101A5000003000F0BAFD25E0F048844209D10121B0
:101A6000880400F0B2FD00214FF4802000F0ADFDAD
:101A700018E0EB48844209D10121C80400F0A5FD1B
:101A800000214FF4002000F0A0FD0BE0E548844267
:101A900008D10121080500F098FD00214FF48010C5
:101AA00000F093FD10BD2DE9F04786B005460E46C7
:101AB0000024A24600BFA1460027B08900B100BFA4
:101AC0002F462C8A4CF6FF700440F08804432C8289
:101AD000AC894EF6F3100440B0883189084371890F
:101AE00008430443AC81AC8A4FF6FF400440B08900
:101AF0000443AC8201A800F0D4FCC648874202D15E
:101B0000DDF810A001E0DDF80CA0A88900F4004089
:101B100040B10AEBCA0000EB0A1031684900B0FB83
:101B2000F1F807E00AEBCA0000EB0A1031688900FF
:101B3000B0FBF1F86420B8FBF0F004012009642147
:101B400001FB1089A88900F4004040B1322000EB6D
:101B5000C900B0FBF1F000F00700044308E03220B8
:101B600000EB09106421B0FBF1F000F00F0004431A
:101B70002C8106B0BDE8F0874FF4165101600021BA
:101B80008180C18001810C214181002181817047C8
:101B900010B502460020108A4FF2FF0318400B8850
:101BA0004C8823438C882343CC88234318431082DA
:101BB00010BD0021018041808180C180704721B12A
:101BC000828942F40052828104E082894DF6FF73DB
:101BD0001A4082817047F0B5034600240026002594
:101BE000002040F66A17B94200D100BF1846C1F381
:101BF000421401F01F06012707FA06F5012C01D156
:101C00000C3004E0022C01D1103000E014301AB185
:101C100007682F43076002E00768AF430760F0BD25
:101C20001AB1838A0B43838202E0838A8B438382C7
:101C30007047028A4FF6F0731A400282028A0A4302
:101C40000282704782894FF2FF731A408281828933
:101C50000A438281704721B1828942F00202828167
:101C600004E082894FF6FD731A4082817047028A30
:101C70004FF6DF731A400282028A0A4302827047DB
:101C800021B1028A42F48042028204E0028A4BF6C9
:101C9000FF731A4002827047C1F3080282807047C6
:101CA00001468888C0F308007047818941F001012E
:101CB00081817047028BD2B20283028B42EA0122F9
:101CC00002837047028B02F47F420283028B0A4335
:101CD0000283704721B1828A42F02002828204E0AE
:101CE000828A4FF6DF731A408282704721B1828A5E
:101CF00042F01002828204E0828A4FF6EF731A40AB
:101D00008282704721B1828A42F00802828204E016
:101D1000828A4FF6F7731A408282704721B1828916
:101D200042F40042828103E08289C2F30E02828182
:101D3000704721B1828A42F40062828204E0828A82
:101D40004FF2FF731A4082827047828A4FF6FB730C
:101D50001A408282828A0A438282704721B1828A33
:101D600042F00202828204E0828A4FF6FD731A403A
:101D70008282704702460020B1F5007F00D100BF8B
:101D800013880B400BB1012000E00020704701F4E4
:101D90000072B2F5007F00D100BFCA4302807047D5
:101DA00070B50246002400230025002040F66A1684
:101DB000B14200D100BFC1F3421501F01F0301265B
:101DC00006FA03F3012D02D19689334006E0022D75
:101DD00002D1168A334001E0968A33400C12012664
:101DE00006FA04F41688344013B10CB1012000E067
:101DF000002070BD10B50022002340F66A14A142F5
:101E000000D100BF0A1201249440A3B2DC43048035
:101E100010BD000000380140004400400048004070
:101E2000004C0040005000400948804709480047E6
:101E3000FEE7FEE7FEE7FEE7FEE7FEE7FEE7FEE77A
:101E4000FEE7FEE704480549054A064B70470000D7
:101E5000D3050008310100083802002038080020AE
:101E6000380400203804002031490143314A116010
:101E7000704770B5002100230F22C47804B32D4CA5
:101E8000246804F4E064C4F5E064210AC1F10403A9
:101E9000CA40447804FA03F18478144021430901CC
:101EA000254C0678A155047804F01F050124AC40A8
:101EB00005786D11AD0005F1E025C5F8004109E098
:101EC000047804F01F050124AC401C4D06787611FF
:101ED00045F8264070BD1A4A0A400243154B1B1FA5
:101EE0001A60704739B1134A121D12680243114B30
:101EF0001B1D1A6006E00F4A121D126882430D4B2B
:101F00001B1D1A607047042808D14FF0E0210969B1
:101F100041F004014FF0E022116107E04FF0E021B1
:101F2000096921F004014FF0E022116170470000BF
:101F30000000FA050CED00E000E400E080E100E0C4
:101F400080FFFF1F10B50446CC48844208D1012110
:101F5000042000F02DFB0021042000F029FB46E0C6
:101F6000C748844208D10121082000F021FB00214C
:101F7000082000F01DFB3AE0C248844208D101214C
:101F8000102000F015FB0021102000F011FB2EE0C6
:101F9000BD48844208D10121202000F009FB002126
:101FA000202000F005FB22E0B848844208D101213E
:101FB000402000F0FDFA0021402000F0F9FA16E080
:101FC000B348844208D10121802000F0F1FA0021B9
:101FD000802000F0EDFA0AE0AE48844207D10121EA
:101FE000801500F0E5FA0021A01500F0E1FA10BD1F
:101FF00010B50121084600F0DBFA0021012000F0B5
:10200000D7FA10BD2DE9F041024600250026002038
:1020100000230024002791F803C00CF00F0591F86D
:1020200003C00CF0100CBCF1000F03D091F802C0FB
:102030004CEA050591F800C0BCF1000F31D01468DE
:1020400000202BE04FF0010C0CFA00F3B1F800C0B7
:102050000CEA03069E4220D183004FF00F0C0CFACD
:1020600003F7BC4305FA03FC4CEA040491F803C0EF
:10207000BCF1280F06D14FF0010C0CFA00FCC2F89D
:1020800014C00AE091F803C0BCF1480F05D14FF02D
:10209000010C0CFA00FCC2F810C0401C0828D1D377
:1020A0001460B1F800C0BCF1FF0F34DD54680020AB
:1020B0002EE000F1080C4FF0010808FA0CF3B1F81B
:1020C00000C00CEA03069E4221D183004FF00F0CA2
:1020D0000CFA03F7BC4305FA03FC4CEA040491F83C
:1020E00003C0BCF1280F05D100F1080C08FA0CF868
:1020F000C2F8148091F803C0BCF1480F07D100F179
:10210000080C4FF0010808FA0CF8C2F81080401CC7
:102110000828CED35460BDE8F0814FF6FF710180EE
:10212000022181700421C17070470246002093682B
:102130000B400BB1012000E0002070470146886889
:1021400080B2704702460020D3680B400BB10120DB
:1021500000E0002070470146C86880B27047016106
:102160007047416170470AB1016100E04161704709
:10217000C16070474FF480320A438261816182619D
:1021800082698269704702460020434B18684FF607
:102190008073184040EA021008433F4B18607047B4
:1021A0003E49C8617047F0B50A460023002400216B
:1021B000002500F00046B6F1004F02D1364EF1691D
:1021C00001E0354E7168C0F3034583B200F4401658
:1021D000B6F5401F08D121F070612F4E766826F0C9
:1021E00070662D4F7E6012E000F48016B6F5801FF9
:1021F00006D1032606FA05F4A14341F0706106E01A
:10220000460D360103FA06F6B14341F0706122B182
:10221000460D360103FA06F6314300F00046B6F1EA
:10222000004F02D11C4EF16101E01B4E7160F0BD08
:1022300030B500228B071C0F0F2303FA04F2164B54
:1022400008338C1053F824309343134C08348D100A
:1022500044F8253023468C1053F824308C07240F83
:1022600000FA04F423430C4C08348D1044F8253054
:1022700030BD0A49DC3108607047000000080140A9
:10228000000C014000100140001401400018014002
:10229000001C0140002001400000014000002042DD
:1022A000DF48006840F00100DD49086008464068EA
:1022B000DC490840DA49486008460068DA490840C5
:1022C000D74908600846006820F480200860084666
:1022D000406820F4FE0048604FF41F00886070479B
:1022E000CF49096821F48031CD4A1160114609684F
:1022F00021F480211160B0F5803F03D0B0F5802F2C
:102300000ED106E0C649096841F48031C44A116023
:1023100007E0C349096841F4A021C14A116000E007
:1023200000BF00BF704710B5014600220023002007
:102330004A11012A02D1BA4C236806E0022A02D1CE
:10234000B74C236A01E0B64C636A01F01F02012416
:1023500094401C400CB1012000E0002010BD38B5B5
:10236000002000900024002500BF3120FFF7DBFF94
:1023700005460098401C00900098B0F5A06F01D071
:10238000002DF2D03120FFF7CEFF08B1012400E08C
:102390000024204638BD01460020A14A106820F0E4
:1023A000F80040EAC10010607047A049086070471B
:1023B000024600209A4B586820F47C1042EA010340
:1023C0001843974B58607047984908667047014614
:1023D0000020934A506820F0030008435060704783
:1023E0008F48406800F00C007047014600208C4A7E
:1023F000506820F0F000084350607047014600200C
:10240000874A506820F4E0600843506070470146F6
:102410000020834A506820F4605040EAC1005060B8
:10242000704729B17E4A527A02437D4B5A7204E0CA
:102430007B4A527A82437A4B5A7270477B49D83131
:102440000860704701460020754A506820F44040FB
:102450000843506070470021714A20321170704A61
:1024600082F82010012802D004280AD104E00121BA
:102470006B4A2032117005E00521694A2032117043
:1024800000E000BF00BF70476949086070476449B9
:10249000096A0143624A116270476549443908601C
:1024A000704730B500210022002400235C4D6D6888
:1024B00005F00C0121B1042905D0082923D105E03C
:1024C0005C4D056022E05B4D05601FE0544D6D687A
:1024D00005F47012524D6D6805F48034022505EB49
:1024E00092421CB9544D554305600BE04C4D6D684C
:1024F00005F400351DB1504D5543056002E04D4DCA
:102500005543056002E04B4D056000BF00BF444DE0
:102510006D6805F0F0010909484D6B5C0568DD4008
:1025200045603F4D6D6805F4E061090A434D6B5C01
:102530004568DD4085603A4D6D6805F46051C90A13
:102540003E4D6B5C4568DD40C560354D6D6805F4FA
:102550004041890B3A4D6B5CC568B5FBF3F50561ED
:1025600030BD29B12E4A526902432D4B5A6104E015
:102570002B4A526982432A4B5A61704729B1284A33
:1025800092690243264B9A6104E0254A926982438C
:10259000234B9A61704729B1214AD2690243204BEB
:1025A000DA6104E01E4AD26982431D4BDA6170474A
:1025B00029B11B4AD2680243194BDA6004E0184A79
:1025C000D2688243164BDA60704729B1144A126907
:1025D0000243134B1A6104E0114A12698243104B03
:1025E0001A61704712494039086070470F49C86442
:1025F00070470B49C87170470948406A40F08070C5
:1026000007494862704701460020054A92680A401F
:102610000AB1012000E0002070470149887270472C
:10262000001002400000FFF8FFFFF6FE00004242EB
:102630008004424200127A0000093D00260000207A
:102640003600002010B50446FE48844208D101211E
:10265000C014FFF7ADFF0021E014FFF7A9FFC4E0AD
:10266000B4F1804F08D101210846FFF7AEFF0021E9
:102670000120FFF7AAFFB8E0F348844208D1012106
:102680000220FFF7A2FF00210220FFF79EFFACE02F
:10269000EE48844208D101210420FFF796FF002173
:1026A0000420FFF792FFA0E0E948844208D101210D
:1026B0000820FFF78AFF00210820FFF786FF94E03B
:1026C000E448844208D101211020FFF77EFF002159
:1026D0001020FFF77AFF88E0DF48844208D101210B
:1026E0002020FFF772FF00212020FFF76EFF7CE023
:1026F000DA48844208D101214014FFF759FF002134
:102700006014FFF755FF70E0D548844209D10121DC
:10271000C804FFF74DFF00214FF40020FFF748FFEA
:1027200063E0D048844209D101210805FFF740FF4A
:1027300000214FF48010FFF73BFF56E0CA48844267
:1027400009D101214805FFF733FF00214FF40010A4
:10275000FFF72EFF49E0C548844208D101214020FF
:10276000FFF733FF00214020FFF72FFF3DE0C04877
:10277000844208D101218020FFF727FF002180201B
:10278000FFF723FF31E0BB48844208D101218015C7
:10279000FFF71BFF0021A015FFF717FF25E0B64844
:1027A000844209D101210804FFF702FF00214FF400
:1027B0008030FFF7FDFE18E0B048844209D10121C6
:1027C0004804FFF7F5FE00214FF40030FFF7F0FE5C
:1027D0000BE0AB48844208D101218804FFF7E8FEF2
:1027E00000214FF48020FFF7E3FE10BD0022028895
:1027F000944B98420ED0994B98420BD0B0F1804F39
:1028000008D0914B984205D0904B984202D0904B03
:10281000984204D14FF68F731A404B881A438D4B60
:10282000984207D08C4B984204D04FF6FF431A4091
:10283000CB881A4302808B8883850B880385814B64
:1028400098420BD0854B984208D08B4B984205D0CC
:102850008A4B984202D08A4B984201D10B7A038668
:1028600001238382704770B5002400220023058C69
:102870004FF6FE7635400584028C8388048B4FF634
:102880008F752C40B51E2C400D882C43751E2A4098
:102890000D892A434D882A436A4DA8420BD06F4DBB
:1028A000A84208D0744DA84205D0744DA84202D069
:1028B000734DA84213D14FF6F7752A404D892A432C
:1028C0004FF6FB752A408D882A434FF6FF652B4053
:1028D0004FF6FF552B408D892B43CD892B438380A9
:1028E0000483CD888586028470BD70B500240022E3
:1028F0000023058C4FF6EF7635400584028C8388E3
:10290000048B48F6FF752C404FF6FF452C400D8890
:102910004FF6FF7606EA05252C434FF6DF752A4071
:102920000D8906EA05152A434D8806EA05152A434E
:10293000444DA84202D0494DA8421DD14FF67F75A3
:102940002A404D894FF6FF7606EA05152A434FF6D1
:10295000BF752A408D8806EA05152A434FF6FF35D4
:102960002B404FF2FF752B408D8906EA85052B43DE
:10297000CD8906EA85052B4383800483CD880587AE
:10298000028470BD70B5002400220023058C4FF630
:10299000FF6635400584028C8388848B4FF68F75E3
:1029A0002C404FF6FC752C400D882C434FF6FF55FC
:1029B0002A400D894FF6FF7606EA05252A434D8801
:1029C00006EA05252A431F4DA84202D0234DA842FE
:1029D0001DD14FF2FF752A404D894FF6FF7606EA6A
:1029E00005252A434FF6FF352A408D8806EA05253E
:1029F0002A434EF6FF752B404DF6FF752B408D890F
:102A000006EA05152B43CD8906EA05152B4383807D
:102A10008483CD888587028470BD70B50022002331
:102A20000024058C4EF6FF7635400584038C84889F
:102A3000828B48F6FF752A404FF6FF452A400D88E5
:102A400020E00000002C014000040040000800408D
:102A5000000C004000100040001400400034014011
:102A6000004C01400050014000540140001800405B
:102A7000001C004000200040004001400044014094
:102A8000004801404FF6FF7606EA05252A434DF639
:102A9000FF752B400D8906EA05352B434D8806EA64
:102AA00005352B43FA4DA84202D0FA4DA84208D171
:102AB0004BF6FF752C408D894FF6FF7606EA85159B
:102AC0002C4384808283CD88A0F84050038470BD5D
:102AD000828B4FF2FF331A408283828B4FF6FF7353
:102AE00003EA01231A4382837047F0B50C4615466A
:102AF000002200210026078C4EF6FF7C07EA0C0717
:102B00000784828B018C4FF6FF7707EA043640F684
:102B1000FF473A404FF6FF7707EA05273A434FF65B
:102B2000FF7707EA03373A43D94FB8420ED0D94F5F
:102B3000B8420BD0B0F1804F08D0D74FB84205D083
:102B4000D64FB84202D0D64FB84206D14DF6FF77E5
:102B5000394046F48057394305E047F6FF5739407E
:102B600044F48057394382830184F0BD828B4FF651
:102B7000F3731A408283828B0A4382837047F0B5D5
:102B80000C461546002200210026078C4FF6FF6CEC
:102B900007EA0C070784828B018C4FF6FF7707EA60
:102BA00004264FF60C773A404FF6FF7707EA0317F3
:102BB0002F433A43B64FB8420ED0B64FB8420BD06F
:102BC000B0F1804F08D0B44FB84205D0B34FB842EF
:102BD00002D0B34FB84206D14FF6FF57394046F402
:102BE0008077394305E04FF2FF57394044F480774E
:102BF000394382830184F0BD028B4FF2FF331A40C8
:102C00000283028B4FF6FF7303EA01231A43028308
:102C10007047F0B50C461546002200210026078CAF
:102C20004FF6EF7C07EA0C070784028B018C4FF606
:102C3000FF7707EA041640F6FF473A404FF6FF7762
:102C400007EA03373A434FF6FF7707EA05273A4387
:102C50008F4FB8420ED08F4FB8420BD0B0F1804F9B
:102C600008D08D4FB84205D08C4FB84202D08C4F5F
:102C7000B84206D14FF6DF77394046F010073943A6
:102C800005E04FF65F77394044F01007394302837F
:102C90000184F0BD028B4FF6F3731A400283028B5E
:102CA0000A4302837047F0B50C4615460022002106
:102CB000068C4FF6FE773E400684028B018C4FF661
:102CC0000C7632407E1C06EA03162E433243704EC9
:102CD000B0420ED06F4EB0420BD0B0F1804F08D052
:102CE0006D4EB04205D06D4EB04202D06C4EB04237
:102CF00006D14FF6FD76314044F00106314305E040
:102D00004FF6F576314044F00106314302830184E9
:102D1000F0BD70B505460C465D4885420ED05D4855
:102D200085420BD0B5F1804F08D05B48854205D075
:102D30005A48854202D05A48854200D100E000BF7F
:102D4000208850B92389A28861882846FFF7ABFF05
:102D5000E1882846FFF79EFF25E0208804280AD155
:102D60002389A28861882846FFF753FFE188284617
:102D7000FFF742FF17E0208808280AD12389A2889C
:102D800061882846FFF7FBFEE1882846FFF7EEFE44
:102D900009E02389A28861882846FFF7A6FEE1881A
:102DA0002846FFF795FE70BD2DE9F04105460C461B
:102DB00000260127608808B9022600E00026A088C6
:102DC000012801D1022700E001272088A0B923892A
:102DD000A28861882846FFF766FFE1882846FFF74A
:102DE00059FF23893A4631462846FFF712FFE1880A
:102DF0002846FFF701FF13E02389A288618828464F
:102E0000FFF707FFE1882846FFF7F6FE23893A46D9
:102E100031462846FFF747FFE1882846FFF73AFF8B
:102E2000BDE8F0810A884B881A438B881A43CB8807
:102E30001A430B891A434B891A438B891A43A0F80A
:102E4000442070474FF6FF71818000210180C180CE
:102E50004180017270470021018041808180C180E2
:102E6000018141818181C1817047002101804180C0
:102E7000012181800021C1800181704700210180F2
:102E800041808180C1800181418181817047000042
:102E9000002C0140003401400004004000080040C4
:102EA000000C004021B1028842F00102028004E0DF
:102EB00002884FF6FE731A400280704731B1B0F8B5
:102EC000442042F40042A0F8442005E0B0F8442039
:102ED000C2F30E02A0F8442070471AB183890B4355
:102EE000838102E083898B438381704781827047AD
:102EF00041EA0203A0F8483070471AB183890B43B6
:102F0000838102E083898B438381704701894FF677
:102F1000F8721140018170470A46002101894FF67D
:102F20008F73194011430181704730B504460D4637
:102F300029462046FFF7F0FF208940F00700208156
:102F400030BD2DE9F04104460D4616461F46602D62
:102F500006D13B46012231462046FFF75AFE05E0E6
:102F60003B46012231462046FFF79DFE294620467A
:102F7000FFF7D2FF208940F007002081BDE8F081F3
:102F800030B50C4600210189C9B24FF6FF7505EA3C
:102F90000325154325432943018130BD2DE9F04127
:102FA00005460E4617469846002443463A463146A3
:102FB0002846FFF7E5FF2C894FF6F870044044F0EF
:102FC00007044FF68F70044044F070042C81BDE874
:102FD000F081F0B504460D4616461F463B46324684
:102FE00029462046FFF7CCFF208940F4804020810D
:102FF000F0BD0185828270470A46002101884FF6A4
:103000008F731940114301807047F0B50C46154687
:103010001E460021002200230189028B038C4FF6FB
:10302000F877394021434FF6FC473A4040F2011708
:103030003A434FF6DD773B404FF6FF7707EA061736
:103040002F433B43018102830384F0BD0A460021E4
:10305000018B4FF68F7319401143018370470A4665
:103060000021018B48F6FF7319404FF6FF7303EA06
:1030700002231943018370470A460021818B4FF6D2
:103080008F7319401143818370470A460021818B59
:1030900048F6FF7319404FF6FF7303EA0223194302
:1030A0008183704721B1028842F08002028004E0EF
:1030B00002884FF67F731A400280704721B18288E0
:1030C00042F00402828004E082884FF6FB731A40CB
:1030D0008280704721B1828842F00802828004E039
:1030E00082884FF6F7731A408280704721B1828838
:1030F00042F00102828004E082884FF6FE731A409B
:10310000828070470A460021018B4FF6F773194001
:103110001143018370470A460021018B4FF2FF7370
:1031200019404FF6FF7303EA0223194301837047E6
:103130000A460021818B4FF6F773194011438183B2
:1031400070470A460021818B4FF2FF7319404FF6FA
:10315000FF7303EA02231943818370470A46002163
:10316000018B4FF6FB7319401143018370470A46E8
:103170000021018B4FF6FF3319404FF6FF7303EA2E
:1031800002231943018370470A460021818B4FF6C1
:10319000FB7319401143818370470A460021818BDC
:1031A0004FF6FF3319404FF6FF7303EA022319432A
:1031B000818370470A460021018B4FF67F731940C7
:1031C0001143018370470A460021018BC1F30E01B0
:1031D0004FF6FF7303EA02231943018370470A463F
:1031E0000021818B4FF67F73194011438183704713
:1031F0000A460021818BC1F30E014FF6FF7303EAEB
:1032000002231943818370470A460021018C4FF63F
:10321000FD7319401143018470470A460021018C57
:103220004FF6F77319401143018470470A46002195
:10323000018C4FF6DF7319404FF6FF7303EA021358
:103240001943018470470A460021018C4FF67F73B1
:1032500019404FF6FF7303EA0213194301847047C4
:103260000A460021018C4FF6FF5319404FF6FF73B9
:1032700003EA02231943018470470A460021018CA6
:103280004FF2FF7319404FF6FF7303EA022319430D
:10329000018470470A460021018C4DF6FF731940E6
:1032A0004FF6FF7303EA023319430184704730B5C8
:1032B000002301248C40A3B2048C9C430484048C1E
:1032C00002FA01F5ADB22C43048430BD30B50023C1
:1032D00004248C40A3B2048C9C430484048C02FA22
:1032E00001F5ADB22C43048430BD70B50346002017
:1032F00000241846183001258D40ACB21D8CA54322
:103300001D8409B1082909D100EB6100056825F089
:10331000700505600568154305600EE00D1FC5F3D7
:103320004E052844056825F4E045056005684FF61C
:10333000FF7606EA02263543056070BD21B102889A
:1033400042F00202028004E002884FF6FD731A4048
:103350000280704721B1028842F00402028004E03A
:1033600002884FF6FB731A400280704721B18288B1
:1033700042F08002828004E082884FF67F731A4018
:103380008280704702884FF6F7731A4002800288E5
:103390000A430280704782884FF68F731A408280FA
:1033A00082880A438280704702894FF6F8731A4078
:1033B000028102890A430281704702894FF67F73B6
:1033C0001A40028102890A43028170478184704752
:1033D0008185704781867047018770478187704774
:1033E000A0F84010704702884FF6FF431A40028051
:1033F00002880A43028070470146888E7047014662
:10340000088F70470146888F70470146B1F8400029
:1034100070470146888C70470146088D7047024608
:103420000020138A0B400BB1012000E00020704700
:10343000CA430282704730B50246002000230024B0
:10344000158A05EA0103958905EA010413B10CB157
:10345000012000E0002030BDCA4302827047000016
:10346000002044490860091D0860091D0860091D05
:10347000086041483F4914310860704700213D49C8
:103480008279002A3AD00A46126803689A430B46AA
:103490001A600A1D126803689A430B1D1A600279AC
:1034A00011440A6803681A430A60324A08321268F3
:1034B00003689A432F4B08331A601A1D1268036879
:1034C0009A432C4B0C331A604279102A0ED11A1FE2
:1034D000126803681A43274B08331A601A1D1268D2
:1034E00003681A43234B0C331A600DE021494279DB
:1034F00011440A6803681A430A6005E0027911441E
:103500000A6803689A430A607047002101600171EC
:103510000C214171002181717047164910310968F1
:103520000143144A10321160704701460020114ACD
:10353000143212680A400AB1012000E000207047EE
:103540000C49143108607047014600200022094BE5
:103550001B6803EA0102074B14331B680B4013B1CD
:103560000AB1012000E000207047024914310860D0
:103570007047000000040140FFFF0F0010B58021DC
:10358000914803F009FD00209049088010BD8F4844
:10359000008808B9012070478C4800888C49098848
:1035A000884203D1002089490880F4E787480088D1
:1035B000874908800120EEE72DE9F04104460D46D9
:1035C000C826204603F007FC87B23A4621468148C8
:1035D000FEF7D6F90FE0FFF7DAFF48B929467A4837
:1035E00003F0C3FB20B1FFF7C9FF0020BDE8F08165
:1035F0000A20FEF724F8301EA6F10101CEB2EAD16E
:103600000120F3E730B589B004460D46FFF7B6FF59
:103610002A4671A101A803F0CFF973A101A8FFF711
:10362000CBFF20B92A4621466A48FEF7A9F909B01E
:1036300030BD70B50546002400BFFFF7A8FF80B974
:103640006AA1614803F091FB044654B13A21204637
:1036500003F06FFB044614B1641C204670BD0020CB
:10366000FCE70520FDF7EBFF681E85B2002DE4DCCA
:103670000020F3E708B501210420FEF77FFF1020AA
:103680008DF803008002ADF8000003208DF80200E1
:1036900069465848FEF7B6FC00224FF48041554871
:1036A000FEF761FDFA20FDF7CAFF012291035148A0
:1036B000FEF759FD4FF4FA70FDF7C1FFFFF75EFF0B
:1036C0004DA14F48FEF775F903E04FF4FA70FDF78E
:1036D000B6FF4CA14CA0FFF76FFF0028F5D14CA11D
:1036E0004748FEF766F942A14CA0FFF765FF4FF48B
:1036F000FA70FDF7A4FF3EA14BA0FFF75DFF4FF46A
:10370000FA70FDF79CFF4CA13D48FEF752F903E02B
:103710004FF4FA70FDF793FF3AA14AA0FFF74CFF70
:103720000028F5D14BA13648FEF743F903E04FF4EA
:10373000FA70FDF784FF33A14AA0FFF73DFF002890
:10374000F5D14CA12E48FEF734F903E04FF4FA709E
:10375000FDF775FF4AA14CA0FFF72EFF0028F5D119
:1037600052A12748FEF725F903E04FF4FA70FDF760
:1037700066FF52A153A0FFF71FFF0028F5D15DA1FE
:103780001F48FEF716F908BD10B540F22551114843
:10379000FEF706FBB0B10D480088802802D3002058
:1037A0000A4908800B48001D0088C1B207480288FA
:1037B0000088401C054B188003488154202105488F
:1037C000FEF7E5FA10BD0000580100203A00002085
:1037D0003C0000200044004041542B4349505345D5
:1037E0004E443D25640D0A003E0000004950442C23
:1037F0000000000000100140302E2041540D0A004E
:10380000003801404F4B000041540D0A00000000F9
:10381000312E205253540D0A0000000041542B5207
:1038200053540D0A0000000041542B434950434CAF
:103830004F53450D0A000000322E2043574D4F4490
:10384000450D0A0041542B43574D4F44453D310D22
:103850000A000000332E2041542B43574448435064
:103860000D0A000041542B4357444843503D312C2E
:10387000310D0A00342E2043574A41500D0A0000F2
:10388000474F54204950000041542B43574A415060
:103890003D225265646D694B3430222C2231323323
:1038A0003435363738220D0A00000000352E20430B
:1038B000495053544152540D0A000000434F4E4E9C
:1038C0004543540041542B43495053544152543DB5
:1038D00022544350222C226D712E746F6E677869CA
:1038E0006E6D616F2E636F6D222C313838330D0A87
:1038F00000000000362E204553503832363620491D
:103900006E6974204F4B0D0A0000000070B504462C
:103910000E460025206898B901202073304602F039
:10392000CDFF20602068E0B100206060A66003E069
:103930000020216848556D1CA068A842F8D810E006
:103940000220207303E00020216848556D1CA06808
:10395000A842F8D800206060A068B04201D20020E0
:10396000206070BD10B50446207B012802D120687C
:1039700002F0D3FF002020606060A060207310BDC3
:103980000246002301230DE002F07F000870D209F7
:103990002AB1087840F080000870491C01E0184600
:1039A00070475B1C042BEFDD4FF0FF30F8E7F0B5FC
:1039B00004460D462646012300201060002114E035
:1039C000775C07F07F07106807FB03001060705CEE
:1039D00000F0800008B9481CF0BDDB01B3F5001F02
:1039E00002D36FF00100F7E7491CA942E8DB4FF072
:1039F000FF30F1E7F8B50446FF2720780511012DC7
:103A000001DB0E2D01DD3846F8BD032D24D1002049
:103A100000906A460421601CFFF7C9FF2044461C41
:103A20000098022803D3207800F0010008B1FF209D
:103A3000EAE77078317840EA0120801C00998842DA
:103A400001D9FF20E0E7F8A1B01C03F08EF908B11E
:103A50000F2700E0032700E02F463846D4E72DE982
:103A6000FF4F83B082468B469146159C002500206F
:103A700002900F270190484603F0ADF90FFA80F845
:103A8000B9F1000F03D1012007B0BDE8F08F08F1B4
:103A90000200384487B2109808B145F00205129828
:103AA00078B145F00405129803F095F9C0B2029080
:103AB000139803F090F901460298001D0844384419
:103AC00087B2119820B1012804D0022808D104E05F
:103AD00000BF07E045F00C0504E045F0140501E0E7
:103AE0000220D1E700BF149808B145F02405BAF1CF
:103AF000000F02D0BBF1000F01D10320C4E745F055
:103B0000C005504603F067F90646584603F063F9CE
:103B10003044001D384487B239462046FFF7F6FE90
:103B2000206808B90420AFE73946206803F034FA6A
:103B300010216268501C606020688154D4E9002321
:103B4000D118781FFFF71CFF00B2019001980028E0
:103B500004DA2046FFF706FF052095E76168019823
:103B60000844606000216268501C606020688154D5
:103B700004216268501C6060206881544D21626895
:103B8000501C60602068815451216268501C606044
:103B90002068815454216268501C60602068815400
:103BA0006268501C60602068815404216268501C67
:103BB0006060206881546168481C606020684554DA
:103BC0000698010A6268501C60602068815406985B
:103BD000C1B26268501C606020688154C8F307213C
:103BE0006268501C6060206881546268501C60608C
:103BF000206800F80280D4E900128818424649463D
:103C000003F0A1F860684044606005F00400B8B3B8
:103C10000026139808B986A01390129803F0DBF8D9
:103C200086B2310A6268501C606020688154626804
:103C3000501C606020688654D4E90012881832460F
:103C4000129903F080F8606830446060139803F0C4
:103C5000C2F886B2310A6268501C606020688154E4
:103C60006268501C606020688654D4E9001288188D
:103C70003246139903F067F860683044606000BF13
:103C800005F08000C8B1504603F0A5F886B2310AAD
:103C90006268501C6060206881546268501C6060DB
:103CA00020688654D4E9001288183246514603F041
:103CB0004AF860683044606000BF05F04000C8B159
:103CC000584603F088F886B2310A6268501C60607A
:103CD000206881546268501C606020688654D4E972
:103CE000001288183246594603F02DF860683044B7
:103CF000606000BF0020C7E610B5044602212046E0
:103D0000FFF704FE206808B9012010BDE0216268B9
:103D1000501C60602068815400216268501C606003
:103D2000206881540020F0E701464878022801D03D
:103D300001207047887810B18878012801D1C878AF
:103D4000F7E7FF20F5E72DE9FF4F83B083461746DD
:103D50009946139C00250026002002900190804681
:103D6000BBF1000F03D1012007B0BDE8F08F0026A2
:103D70000AE00498805D232803D00498805D2B28F6
:103D800001D10220F0E7761C0498805D0028F0D174
:103D900048F03008119808B148F0010806EB090016
:103DA000851C109820B1012804D002280AD105E012
:103DB00000BF09E048F00208AD1C05E048F0040827
:103DC000AD1C01E00320CFE700BF67B338780228BD
:103DD00021D14FF0000A00BF50460AF1010A385CB9
:103DE0007D28F9D1AAF1030A0AF10700029002988E
:103DF000A9EB000AE81CA0EB0A012046FFF786FDAC
:103E0000206808B90420AFE7EA1CA2EB0A01206889
:103E100003F0C2F81FE0691D2046FFF777FD206818
:103E200040B90420A0E70AE0246372657100000035
:103E300000000000691D206803F0AEF80BE0691D6A
:103E40002046FFF763FD206808B904208CE7691D50
:103E5000206803F0A1F86168481C6060206800F8E1
:103E60000180D4E9000281182846FFF789FD0190FE
:103E70000198002804DA2046FFF774FD052073E757
:103E80006168019808446060C6F307216268501CAD
:103E90006060206881546268501C606020688654AD
:103EA000D4E9001288183246049902F04CFF606889
:103EB00030446060109860B14FEA1B216268501C6A
:103EC0006060206881546268501C6060206800F85F
:103ED00002B0C7B1387802280BD1D4E90012881893
:103EE0003946029A02F0E1FF616802980844606076
:103EF00009E0D4E9001288184A46394602F0D5FF95
:103F000060684844606000202EE72DE9FF410746C5
:103F10000D4690461E460A9C01200021CDE9000175
:103F2000EB1C0A46FAA1CDE902040A20FFF70BFFB9
:103F300088B96168481C606020684654C5F3072151
:103F40006268501C6060206881546268501C606028
:103F50002068855403E0012004B0BDE8F081002012
:103F6000FAE72DE9F04F85B080460D4691460120D5
:103F700004900027002600244FF0000A404602F07B
:103F80002AFF00F10D0B584602F098FC07461FB9B6
:103F9000049805B0BDE8F08F4246DEA1384602F035
:103FA0000BFD384602F017FFC6B2F01D00EB050A04
:103FB000AAEB050002F082FC044624B9384602F060
:103FC000ACFC0498E5E70220207000206070A67029
:103FD00032463946E01C02F068FF290EF01C2154DD
:103FE000C5F30741301D2154C5F30721701D21542D
:103FF000B01D255401200021CDE900015346224681
:10400000C3A1CDE902090A20FFF79DFE08B90020EF
:104010000490384602F081FC204602F07EFC0498B1
:10402000B7E72DE9F84380460C4615461E462F217A
:1040300008F1060002F07DFE07460020009017B947
:104040000120BDE8F8837F1C6A46042108F10100C5
:10405000FFF7ADFC252002F031FC2060206808B994
:104060000220EEE72521206802F096FF242239463F
:10407000206802F01AFF243700982C3830803188ED
:10408000481C02F01BFC2860286820B9206802F058
:1040900044FC0320D5E73288511C286802F07CFFDD
:1040A00032883946286802F000FF0020C9E72DE970
:1040B000FF5F07460D469046384602F08CFE86B2FA
:1040C000284602F088FE1FFA80FA4FF00009F01D22
:1040D00002F0F4FB04461CB9012004B0BDE8F09FD7
:1040E000F11D204602F058FF8EA0016821608088F3
:1040F000A08032463946204602F025FE284602F0CE
:104100006AFE83460120002100915B462A46CDE9E4
:104110000208019121460A20FFF715FE10B94FF061
:10412000000901E04FF00109204602F0F6FB484685
:10413000D3E72DE9FF5F8046174699460E9C00267F
:10414000B246B3460025B8F1000F03D1012004B0F8
:10415000BDE8F09F0BE057F8250008B90220F6E70C
:1041600057F8250002F037FE0644681CC5B24D45DD
:10417000F1DB09EB4900801C00EB060A0AF105019E
:104180002046FFF7C3FB206808B90320DFE7822140
:104190006268501C606020688154D4E90002811874
:1041A0005046FFF7EDFB0FFA80FBBBF1000F04DA7E
:1041B0002046FFF7D7FB0420C9E7606858446060D9
:1041C0004FEA18216268501C606020688154626860
:1041D000501C6060206800F80280002524E057F839
:1041E000250002F0F8FD0646C6F307216268501C60
:1041F0006060206881546268501C6060206886544A
:10420000D4E90023D01857F82510324602F09BFD60
:104210006068304460600198C1B26268501C6060A0
:1042200020688154681CC5B24D45D8DB00208EE75C
:104230000146FF208A78A2B9CA78142A11D10A79D6
:1042400032B1012A05D0022A04D0802A06D103E027
:1042500000BF00BF002003E0012001E0022000BFFA
:1042600000BF70472DE9F05F80460F4691461C461F
:104270000026B246B3460025B8F1000F02D1012056
:10428000BDE8F09F0BE057F8250008B90220F7E7DA
:1042900057F8250002F09FFD0644681CC5B24D4545
:1042A000F1DB022000EB490000EB060A0AF10501F0
:1042B0002046FFF72BFB206808B90320E0E7A22186
:1042C0006268501C606020688154D4E90002811843
:1042D0005046FFF755FB0FFA80FBBBF1000F04DAE5
:1042E0002046FFF73FFB0420CAE76068584460603F
:1042F0004FEA18216268501C60602068815462682F
:10430000501C6060206800F8028000252CE000004E
:10431000246470007B2264735F6964223A222573EF
:10432000227D000024637273702F000057F825006F
:1043300002F051FD0646C6F307216268501C60601A
:10434000206881546268501C606020688654D4E9FB
:104350000023D01857F82510324602F0F4FC6068AC
:1043600030446060681CC5B24D45DFDB002087E744
:10437000014601208A781AB9CA781E2A00D1002085
:1043800070472DE9FC5F81460D4614461E46DDE967
:104390000C8B99F8000000F00F0A002001900AF041
:1043A00008000090CAF341008BF8000001AA042124
:1043B00009F10100FFF7FBFA4844471C0198022865
:1043C00002D30AF0010010B1FF20BDE8FC9F78780D
:1043D000397840EA012020802088801C0199884299
:1043E00001D9FF20F1E7AFF2C051B81C02F0BDFCCB
:1043F00008B10F20E9E79BF8000020B101283DD06B
:10440000022877D13BE0009808B1FF20DDE7218842
:10441000481C02F053FA2860286808B9FF20D4E746
:104420002288511C286802F0B7FD2288B91C286830
:1044300002F03BFD0198801E2188401AA8F8000078
:10444000B8F80010481C02F039FA3060306820B922
:10445000286802F062FAFF20B7E7B8F80020511C84
:10446000306802F099FDB8F80020B4F800C0BB1C19
:104470000CEB0301306802F018FD4FE000BF20880C
:10448000801C0199884201D9FF209EE72088C01C2A
:10449000395C2088801C385C41EA00210E9801803C
:1044A0000E9808B9FF2090E72188481C02F006FA10
:1044B0002860286808B9FF2087E72288511C2868EF
:1044C00002F06AFD2288B91C286802F0EEFC01980F
:1044D000001F2188401AA8F80000B8F80010481CF6
:1044E00002F0ECF93060306828B9286802F015FA5B
:1044F000FF206AE710E0B8F80020511C306802F095
:104500004BFDB8F80020B4F800C03B1D0CEB0301D4
:10451000306802F0CAFC01E0FF2056E700BF2B2103
:10452000284602F006FC20B92321284602F001FCAF
:1045300008B1FF2049E7002047E770B505460C4663
:1045400004212046FFF7E2F9206808B9012070BD78
:1045500040216268501C60602068815402216268BA
:10456000501C60602068815429126268501C606091
:10457000206881546268501C606020688554002067
:10458000E5E701464878022801D001207047887885
:1045900020B9C8780A2801D10020F7E70120F5E703
:1045A00070B505460C4604212046FFF7AFF9206898
:1045B00008B9012070BD50216268501C60602068FD
:1045C000815402216268501C606020688154291265
:1045D0006268501C6060206881546268501C606092
:1045E000206885540020E5E701464878022801D07C
:1045F00001207047887820B9C8780A2801D10020A6
:10460000F7E70120F5E770B505460C460421204682
:10461000FFF77CF9206808B9012070BD622162684B
:10462000501C60602068815402216268501C6060E8
:104630002068815429126268501C6060206881548F
:104640006268501C6060206885540020E5E70246DF
:104650005078022801D0012070479078B0EB112FDC
:1046600005D1D078CBB2984201D10020F4E70120E7
:10467000F2E770B505460C4604212046FFF746F9DF
:10468000206808B9012070BD70216268501C60600C
:104690002068815402216268501C60602068815447
:1046A00029126268501C6060206881546268501C46
:1046B0006060206885540020E5E7014648780228BC
:1046C00001D001207047887820B9C8780A2801D124
:1046D0000020F7E70120F5E710B504460221204647
:1046E000FFF714F9206808B9012010BDC0216268E5
:1046F000501C60602068815400216268501C60601A
:10470000206881540020F0E730B58BB0002007907E
:10471000089009900A900125D7A0DBA3DCA2DFA1B5
:104720000090EA48FDF745F907A80021029103919E
:10473000CDE9041000912B02CFA20191D2A1D4A007
:10474000FFF78DF9002842D1089A91B20798FEF739
:1047500059FFFA20FEF76DFF0446002C33D02046A7
:10476000FFF748F902282ED12046FFF7DDFA062888
:1047700023D2DFE800F003090E13181DD4A1D3489B
:10478000FDF717F900251DE0D6A1D048FDF711F976
:1047900018E0DBA1CD48FDF70CF913E0E1A1CB480F
:1047A000FDF707F90EE0E7A1C848FDF702F909E0B7
:1047B000EDA1C648FDF7FDF804E0F6A1C348FDF7FA
:1047C000F8F800BF00BF07A8FFF7CCF803E0F8A196
:1047D000BE48FDF7EEF828460BB030BD70B586B088
:1047E00004460D4600260020029003900490059098
:1047F00007E054F82620F7A1B448FDF7DAF8701C5A
:10480000C6B2AE42F5DB02A82B462246002100903C
:104810001420FFF78EFC38B9039A91B20298FEF784
:10482000F1FE02A8FFF79EF806B070BD70B588B023
:1048300005460C46002004900590069007902346FC
:104840002A46EAA1A148FDF7B4F8204602F0C3FACF
:10485000064604A80121002200923346CDE9012139
:104860000390224629460A20FFF76DFA38B9059AC7
:1048700091B20498FEF7C6FE04A8FFF773F808B0DB
:1048800070BD2DE9F04F8FB0814600200B900C9049
:104890000D900E900A9009900890079000270690BE
:1048A0000026002482464846FFF7A4F80746F81E73
:1048B0000D2876D2DFE800F01C8089A3BF75C8758B
:1048C000D6757575070007AB0AAA09A94846FFF710
:1048D000A8FB06465EB9BDF81C000090CBA17B4842
:1048E000DDE90923FDF765F80BA8FFF73BF863E264
:1048F000CF4806A907AA0AABCDE90021029008AA71
:1049000009A94846FFF73DFD0646002E53D1BDF8E4
:104910001C000A99CDE90010BDF82030C5A16B48F4
:10492000099AFDF746F80A9801F0ECF88046B8F1CC
:10493000000F08D100F082FA83465A46CCA16348A2
:10494000FDF737F834E0CFA1404601F0E1FC054621
:10495000CEA15E482A6AFDF72CF8CCA15B482A69F3
:10496000FDF727F8CEA1286902F0FFF970B1CDA1BB
:10497000404601F0CDFC0546686918B10120CB49DD
:10498000086015E00020C949086011E0C5A1404653
:1049900001F0BEFC0546686920B10120C4490860E9
:1049A00003E006E20020C24908600020C149086017
:1049B000404600F0A5FAFFE14846FFF7E2FD18B9CE
:1049C000BDA14248FCF7F5FFF6E14846FFF70CFEB3
:1049D000A0B9C1A13D48FCF7ECFF0BA90A20FFF7E5
:1049E00012FE58B9C2A13948FCF7E3FF0C9A91B204
:1049F0000B98FEF707FE0BA8FEF7B4FFDCE18C482E
:104A000001884846FFF723FEA0B9BFA12F48FCF755
:104A1000D0FF0BA90A20FFF72CFE58B9C0A12B48E4
:104A2000FCF7C7FF0C9A91B20B98FEF7EBFD0BA8B1
:104A3000FEF798FFC0E14846FFF73FFE18B9BFA157
:104A40002248FCF7B6FFB7E14846FFF7F1FB20B973
:104A5000C0A11E48FCF7ADFF03E0C5A11B48FCF751
:104A6000A8FFA9E14846FFF783FC20B9C7A1174872
:104A7000FCF79FFF9CE197E1736D617274686F6D45
:104A8000655F3031000000004A61736F6E00000006
:104A9000736D617274686F6D650000004F6E654ED6
:104AA00065745F4465764C696E6B0D0A50524F49D0
:104AB000443A2025732C09415549463A2025732C48
:104AC0000944455649443A25730D0A00003801400F
:104AD000546970733A09C1ACBDD3B3C9B9A60D0A04
:104AE000000000005741524E3A09C1ACBDD3CAA7DD
:104AF000B0DCA3BAD0ADD2E9B4EDCEF30D0A00001C
:104B00005741524E3A09C1ACBDD3CAA7B0DCA3BAD3
:104B1000B7C7B7A8B5C4636C69656E7469640D0ADC
:104B2000000000005741524E3A09C1ACBDD3CAA79C
:104B3000B0DCA3BAB7FECEF1C6F7CAA7B0DC0D0A47
:104B4000000000005741524E3A09C1ACBDD3CAA77C
:104B5000B0DCA3BAD3C3BBA7C3FBBBF2C3DCC2EBBD
:104B6000B4EDCEF30D0A00005741524E3A09C1ACE4
:104B7000BDD3CAA7B0DCA3BAB7C7B7A8C1B4BDD369
:104B800028B1C8C8E7746F6B656EB7C7B7A8290DA1
:104B90000A0000004552523A09C1ACBDD3CAA7B0C1
:104BA000DCA3BACEB4D6AAB4EDCEF30D0A00000051
:104BB0005741524E3A094D5154545F5061636B65F1
:104BC00074436F6E6E656374204661696C65640D35
:104BD0000A00000053756273637269626520546F46
:104BE0007069633A2025730D0A0000005075626CED
:104BF00069736820546F7069633A2025732C204DC7
:104C000073673A2025730D0A00000000636D646924
:104C1000643A2025732C207265713A2025732C206C
:104C20007265715F6C656E3A2025640D0A000000A4
:104C30003E000020746F7069633A2025732C207445
:104C40006F7069635F6C656E3A2025642C2070611B
:104C5000796C6F61643A2025732C207061796C6FD8
:104C600061645F6C656E3A2025640D0A00000000E7
:104C70004572726F72206265666F72653A205B25BD
:104C8000735D0A0074617267657400006A736F6E09
:104C90005F76616C75653A205B25735D0A000000E4
:104CA0004C45440076616C7565000000948121429A
:104CB0000000002001000020546970733A094D5132
:104CC0005454205075626C6973682053656E64207B
:104CD0004F4B0D0A00000000546970733A09526589
:104CE00076205075626C6973685265630D0A000026
:104CF000546970733A0953656E64205075626C692B
:104D0000736852656C0D0A00546970733A095265F4
:104D100076205075626C69736852656C0D0A0000EC
:104D2000546970733A0953656E64205075626C69FA
:104D30007368436F6D700D0A000000005469707352
:104D40003A09526576205075626C697368436F6DDD
:104D5000700D0A00546970733A094D515454205330
:104D60007562736372696265204F4B0D0A00000023
:104D7000546970733A094D515454205375627363EA
:104D800072696265204572720D0A00005469707381
:104D90003A094D51545420556E53756273637269CC
:104DA0006265204F4B0D0A001BA12348FCF701FE52
:104DB00002E04FF0FF3600BF00BFFEF7DFFB701CC4
:104DC00010B90FB0BDE8F08F7D210A9801F0B1FF56
:104DD0000446A4B1701C90B1641C06E014F8012BC9
:104DE00050460AF1010A03A90A542078302802DB50
:104DF00020783928F2DD03A801F08EFF82460F2FBC
:104E000001D0032F05D1099801F087FD0A9801F020
:104E100084FD00BFD5E70000546970733A094D5115
:104E2000545420556E5375627363726962652045F0
:104E300072720D0A0000000000380140FE48006850
:104E4000704770B504460D462CB9AC4201D0012024
:104E500070BD0020FCE70DB90120F9E705E02078DE
:104E600008B90020F4E7641C6D1C207801F07CFD7B
:104E70000646287801F078FD8642F0D0207801F0CF
:104E800073FD0646287801F06FFD301AE0E770B533
:104E90000446204601F09FFF451C2846E749096863
:104EA0008847061E00D170BD2A462146304601F0D3
:104EB000FCFF3046F7E730B9E149E04A1160E149CB
:104EC000E14A11607047016809B1016800E0DC49FE
:104ED000DA4A1160416809B1416800E0D949DA4A0B
:104EE000116000BFEEE710B52820D4490968884753
:104EF00004461CB12821204602F070F8204610BD5F
:104F000070B5044622E02568A08900F4807020B9BD
:104F1000A06810B1A068FFF7F3FFA08900F48070CB
:104F200028B9206918B1C849206909688847A0894B
:104F300000F4007028B9206A18B1C349206A0968D2
:104F400088472046C049096888472C46002CDAD19A
:104F500070BD2DE9F04F8BB083468A460020044691
:104F600005460026B94F0021884689460990012050
:104F700008909AF800002D2802D1B54F0AF1010AD5
:104F80009AF80000302801D10AF1010A9AF80000CD
:104F9000312822DB9AF8000039281EDC00BF1AF8FD
:104FA000011BA1F1300004F080FB0022A94BCDE9E8
:104FB00006012046294604F0CBFBCDE90401DDE9DA
:104FC000062304F0F3F804460D469AF80000302852
:104FD00003DB9AF800003928E1DD9AF800002E285A
:104FE00030D19AF8010030282CDB9AF801003928DA
:104FF00028DC0AF1010A00BF1AF8011BA1F13000F8
:1050000004F053FB0022934BCDE9060120462946CC
:1050100004F09EFBCDE90401DDE9062304F0C6F8A7
:1050200004460D460022894B4046494604F0B6FD31
:10503000804689469AF80000302803DB9AF8000081
:105040003928D9DD9AF80000652803D09AF80000C5
:10505000452823D10AF1010A9AF800002B2802D131
:105060000AF1010A08E09AF800002D2804D14FF057
:10507000FF3008900AF1010A08E01AF8010B3038F5
:10508000099901EB810100EB410009909AF80000B9
:10509000302803DB9AF800003928EEDDDDE908212D
:1050A00001FB02F004F001FB42464B46CDE9000152
:1050B00004F07CF802460B46CDE902010020654968
:1050C00003F036FB22462B46CDE906013046394631
:1050D00004F03EFBCDE90401DDE9062304F038FBD2
:1050E00004460D46CBE906452046294604F0AEFAB3
:1050F000CBF814000320CBF80C0050460BB0BDE8F1
:10510000F08F0146491E41EA610141EAA10141EAED
:10511000211141EA212141EA2141481C70472DE932
:10512000F04104460E460CB1206810B90020BDE8DD
:10513000F081A06806446068B04203DBA168206883
:105140000844F4E73046FFF7DCFF074638463B49A2
:105150000968884705463DB93B4920680968884782
:10516000002060602060E2E725B12846D4E9001203
:1051700001F09BFE34492068096888476760256014
:10518000A0682844D3E770B504460CB1206808B97C
:10519000002070BDA16820684518284601F01BFE5C
:1051A000A1680844F5E72DE9FC4782460E464FF01A
:1051B0000009DAE90645002213462046294604F094
:1051C00009FA13D12EB102213046FFF7A8FF81461C
:1051D00004E002201949096888478146B9F1000FA7
:1051E00003D01DA00088A9F800009FE0DAF81400A1
:1051F00004F05BFA074622462B4604F0CFFC21F070
:1052000000410022154BCDE9000104F065FA3ED8BB
:10521000134A144B2046294604F05EFA37D8002280
:10522000114B2046294604F091FB30D806B31521D6
:105230003046FFF774FF19E04000002044000020D2
:10524000BD6800081B690008480000200000F03F0E
:105250000000F0BF00002440300000000000B03C1F
:105260000000C0FFFFFFDF410000E0C1814604E015
:105270001520FA49096888478146B9F1000F55D0D1
:10528000F7A14846DAF8142001F096FB4EE02EB163
:1052900040213046FFF743FF814604E04020EF49BC
:1052A000096888478146B9F1000F3FD0204629465A
:1052B00003F0D0F9074622462B4604F06FFC21F09C
:1052C00000410022E74BCDE9000104F005FA0FD8B8
:1052D00025F000412746E44AE44B384604F0FCF947
:1052E00006D222462B46E2A1484601F065FB1DE0AE
:1052F00025F000412746E04AE04B384604F0ECF93F
:1053000007D325F000410022DD4B384604F01EFB98
:1053100006D222462B46DBA1484601F04DFB05E0B4
:1053200022462B46D8A1484601F046FB4846BDE838
:10533000FC87014600220878302806DB08783928E7
:1053400003DC08783038024415E00878412806DB91
:105350000878462803DC0878373802440BE00878E0
:10536000612806DB0878662803DC08785738024491
:1053700001E0002070471201491C0878302806DB44
:105380000878392803DC08783038024415E00878BA
:10539000412806DB0878462803DC087837380244C1
:1053A0000BE00878612806DB0878662803DC0878BB
:1053B0005738024401E00020DCE71201491C08785C
:1053C000302806DB0878392803DC087830380244B6
:1053D00015E00878412806DB0878462803DC0878C1
:1053E000373802440BE00878612806DB0878662825
:1053F00003DC08785738024401E00020BAE71201C4
:10540000491C0878302806DB0878392803DC08783E
:105410003038024415E00878412806DB0878462831
:1054200003DC0878373802440BE00878612806DB93
:105430000878662803DC08785738024401E0002029
:1054400098E7104696E72DE9F05F8346884608F115
:105450000104002798F80000222805D08B48C0F8E6
:1054600000800020BDE8F09F04E014F8011B5C29D7
:1054700000D1641C2078222804D0207810B1781C38
:10548000071EF2D1781C7549096888478146B9F131
:10549000000F01D10020E5E708F101044D469EE030
:1054A00020785C2804D014F8010B05F8010B96E075
:1054B000641C2078722818D006DC622809D066287F
:1054C0000BD06E287ED10CE0742812D07528F9D14B
:1054D00013E0082005F8010B7FE00C2005F8010B14
:1054E0007BE00A2005F8010B77E00D2005F8010BA1
:1054F00073E0092005F8010B6FE0601CFFF719FF4E
:105500000646241DB6F55C4F02D3B6F5604F00D3B6
:1055100006B962E0B6F5584F1CD3B6F55C4F19D208
:1055200060785C2802D1A078752800D055E0E01C96
:10553000FFF7FFFE8246A41DBAF55C4F02D3BAF511
:10554000604F00D349E0C6F30901504661F39F2044
:1055500000F580360427802E01D2012708E0B6F539
:10556000006F01D2022703E0B6F5803F00D2032787
:105570003D44012F20D0022F15D0032F0AD0042F35
:1055800024D106F0BF0040F08001681E054601707E
:10559000B60900BF06F0BF0040F08001681E054656
:1055A0000170B60900BF06F0BF0040F08001681E20
:1055B00005460170B60900BF3548C05D3043C1B231
:1055C000681E00E005E00546017000BF00BF3D44D5
:1055D00003E0207805F8010B00BF00BF641C2078B1
:1055E000222803D0207800287FF45AAF00202870AA
:1055F0002078222800D1641CCBF810900420CBF82E
:105600000C0020462EE72DE9F05F804689460027F2
:10561000BB46454611E02878002802DD287820287E
:1056200005DB2878222802D028785C2801D10120C7
:1056300000E0002040EA0B0B6D1C28780028EAD11E
:10564000BBF1000F3ED1A5EB0807B9F1000F21D047
:10565000F91C4846FFF763FD064620E044000020A1
:10566000256400000000B03C44F3C2E4E4E9634C6C
:10567000252E3066000000008DEDB5A0F7C6B03EC7
:1056800065CDCD4125650000256600004000002065
:1056900070A50008F81CFD4909688847064616B938
:1056A0000020BDE8F09F3446222004F8010B41465B
:1056B000204601F06CFB2220E0550021781C21548B
:1056C0003046EEE7B8F1000F16D1B9F1000F05D062
:1056D00003214846FFF723FD064604E00320EB497B
:1056E0000968884706460EB90020DAE7E8A1304687
:1056F00001F04DFB3046D4E745460BE05146E5A0AE
:1057000001F017FB08B17F1C03E0BAF1200F00DAAB
:105710007F1D6D1C95F800A0BAF1000F02D0781C17
:10572000071EEBD1B9F1000F05D0F91C4846FFF771
:10573000F6FC064604E0F81CD4490968884706468A
:105740000EB90020ADE734464546222004F8010B8F
:1057500047E028781F280ADD2878222807D02878F3
:105760005C2804D015F8010B04F8010B39E05C202B
:1057700004F8010B15F8011B8A460C2919D006DC28
:10578000082912D0092920D00A2922D115E00D2993
:1057900017D0222905D05C291BD15C2004F8010B0D
:1057A0001EE0222004F8010B1AE0622004F8010B2D
:1057B00016E0662004F8010B12E06E2004F8010BDD
:1057C0000EE0722004F8010B0AE0742004F8010BCB
:1057D00006E05246B1A1204601F0EEF8641D00BF7C
:1057E00000BF28780028B4D1222004F8010B002043
:1057F00004F8010B304654E770B504460D462946BF
:105800002069FFF700FF70BD00E0401C20B1017867
:1058100011B101782029F8DD70472DE9F0470646DF
:105820000C4620787B2804D09E4804600020BDE808
:10583000F0870620F060601CFFF7E6FF0446207842
:105840007D2801D1601CF2E7FFF74DFB0546B060F3
:10585000B06808B90020EAE72046FFF7D5FF804688
:1058600041462846FFF7EFFD0746FFF7CDFF044608
:105870000CB90020DBE72869286200202861207825
:105880003A2803D0874804600020D0E7601CFFF767
:10589000BBFF80464146284600F099F80746FFF7CF
:1058A000B3FF04460CB90020C1E731E0FFF71BFB52
:1058B000071E00D1BBE72F607D603D46601CFFF7EF
:1058C000A3FF814649462846FFF7BDFD8046FFF706
:1058D0009BFF04460CB90020A9E728692862002034
:1058E000286120783A2803D06E48046000209EE7A3
:1058F000601CFFF789FF81464946284600F067F89B
:105900008046FFF781FF04460CB900208FE700BFF7
:1059100020782C28CAD020787D2801D1601C86E709
:1059200060480460002082E72DE9F04705460C46F8
:1059300020785B2804D05B4804600020BDE8F08735
:105940000520E860601CFFF75FFF044620785D28B3
:1059500001D1601CF2E7FFF7C6FA0646A860A86806
:1059600008B90020EAE72046FFF74EFF804641468F
:10597000304600F02CF80746FFF746FF04460CB906
:105980000020DBE717E0FFF7AEFA071E00D1D5E7EE
:1059900037607E603E46601CFFF736FF8146494611
:1059A000304600F014F88046FFF72EFF04460CB98D
:1059B0000020C3E700BF20782C28E4D020785D28A1
:1059C00001D1601CBAE7374804600020B6E770B523
:1059D00005460C460CB9002070BD042232A12046B9
:1059E00001F018FA18B90220E860201DF4E705223A
:1059F0002FA1204601F00EFA18B90020E860601DC2
:105A0000EAE704222CA1204601F004FA20B9012083
:105A1000E8606861201DDFE72078222804D1214654
:105A20002846FFF710FDD7E720782D2805D02078ED
:105A3000302807DB2078392804DC21462846FFF788
:105A400088FAC9E720785B2804D121462846FFF769
:105A50006BFFC1E720787B2804D121462846FFF759
:105A6000DCFEB9E70F4804600020B5E72DE9F047F8
:105A700080460D4616460024FFF735FA07460020FB
:105A800008490860E7B9BDE8F0870000440000203D
:105A900022220000225C080C0A0D09007525303412
:105AA00078000000400000206E756C6C0000000063
:105AB00066616C736500000074727565000000001B
:105AC0004046FFF7A1FE814649463846FFF77FFF73
:105AD00004462CB93846FFF713FA0020BDE8F087DA
