:020000040800F2
:10000000D04E0020E1010008BB330008212A00087F
:10001000B9330008750A0008C54400080000000054
:10002000000000000000000000000000490100087E
:10003000770A0008000000008D01000885400008D4
:10004000FB010008FB010008FB010008FB010008A0
:10005000FB010008FB010008FB010008FB01000890
:10006000FB010008FB010008FB010008FB01000880
:10007000FB010008FB010008FB010008FB01000870
:10008000FB010008FB010008FB010008FB01000860
:10009000FB010008FB010008FB010008FB01000850
:1000A000FB01000811410008FB010008FB010008EA
:1000B000FB010008FB010008FB010008FB01000830
:1000C000FB010008FB010008FB010008FB01000820
:1000D000FB0100087D440008FB010008894400087A
:1000E000FB010008FB010008FB010008FB01000800
:1000F000FB010008FB010008FB010008FB010008F0
:10010000FB010008FB010008FB010008FB010008DF
:10011000FB010008FB010008FB010008FB010008CF
:10012000FB010008FB010008FB010008FB010008BF
:10013000DFF810D000F044FB00480047C14E000833
:10014000AFF30080D04E0020224B19680868B0E859
:10015000F00F80F30988BFF36F8F4FF0000080F33A
:1001600011884EF00D0E7047000000000648006830
:10017000006880F3088862B661B6BFF34F8FBFF3A3
:100180006F8F00DF00BF00BF08ED00E0EFF30980D4
:10019000BFF36F8F0F4B1A6820E9F00F106008B59E
:1001A0004FF0500080F31188BFF34F8FBFF36F8F74
:1001B00005F09AFF4FF0000080F31188BDE8084079
:1001C00019680868B0E8F00F80F30988BFF36F8FF3
:1001D000704700BFE4200020EFF305807047000067
:1001E0000648804706480047FEE7FEE7FEE7FEE7D1
:1001F000FEE7FEE7FEE7FEE7FEE7FEE70F41000849
:1002000031010008202A04DB203A21FA02F0002103
:10021000704721FA02F3D040C2F120029140084316
:100220001946704740EA01039B0703D009E008C95B
:10023000121F08C0042AFAD203E011F8013B00F8AB
:10024000013B521EF9D27047D2B201E000F8012BF7
:10025000491EFBD270470022F6E710B513460A4646
:1002600004461946FFF7F0FF204610BD421E12F863
:10027000013F002BFBD111F8013B02F8013B002BA1
:10028000F9D1704730B505462A460B4612F8010BE6
:1002900013F8014B08B1A042F8D01CB1002802D0DD
:1002A0006D1CF1E7284630BD10B5002200E0521C5D
:1002B000835C8C5CA34201D1002BF8D1D8B2E1B2AF
:1002C000401A10BD2DE9FE4F804681EA0300C00FA1
:1002D0000C46009021F0004123F00045B8EB0200ED
:1002E000A94105D24046214690461C460B4602468F
:1002F00023F00040104347D0270DC7F30A00C3F393
:100300000A510290401A019040286BDAC3F313009F
:1003100040F4801B0098924620B10023D2EB030AE0
:1003200063EB0B0B01985946C0F14002504600F0B8
:10033000B7F806460D4650465946019A00F0BFF8F8
:1003400010EB08006141002487EA115284EAE77348
:100350001A4340D0009A62B3019A012A4FEA075229
:1003600015DC001B61EB02014FF0004202EA07526C
:10037000CDE90042001C41F5801132462B4600F0C9
:10038000BFF803B0BDE8F08F40462146F9E7001BF7
:1003900061EB0201001C41F5801300185B4120183D
:1003A000A2F5001747EB030140EAD570B6196D417D
:1003B00011E06D084FEA360645EAC0754FEA07526C
:1003C000001B61EB0201001C41F5801149084FEA56
:1003D00030000019514132462B4603B0BDE8F04FC2
:1003E00000F07FB80098012240000023D0EB020209
:1003F00063EBE073009821464FEAE074B8EB00002D
:1004000061EB0401E9E783F000435BE781F0004121
:1004100058E730B50B46014600202022012409E0B0
:1004200021FA02F59D4205D303FA02F5491B04FAAD
:1004300002F52844151EA2F10102F1DC30BD2DE9C0
:10044000F05F0546002092469B4688460646814658
:1004500040241BE02846414647462246FFF7D2FE8D
:1004600053465A46C01A914110D3114618462246A7
:1004700000F016F82D1A67EB01084F4622460120BE
:10048000002100F00DF817EB00094E41201EA4F1E9
:100490000104DFDC484631462A464346BDE8F09F6A
:1004A000202A04DB203A00FA02F100207047914034
:1004B000C2F1200320FA03F3194390407047202A29
:1004C00006DBCB17203A41FA02F043EAE07306E07C
:1004D00041FA02F3D040C2F120029140084319468C
:1004E000704710B5141E73F1000408DA401C41F186
:1004F000000192185B411A4301D120F0010010BDA8
:100500002DE9F04D92469B4611B1B1FA81F202E01D
:10051000B0FA80F220329046FFF7C2FF04460F4641
:1005200040EA0A0041EA0B0153465A46084313D0F9
:10053000114653EA010019D0C8F140025046FFF7B6
:1005400061FE05460E46504659464246FFF7A8FF53
:10055000084305D0012004E020463946BDE8F08D6F
:100560000020054346EAE0762C4337430A986305AA
:10057000E40AA0EB08000022FD0A44EA47540A30CE
:1005800002D500200146E9E7010510196941DDE9BE
:10059000084500196941BDE8F04DA2E72DE9FE4F7D
:1005A00081EA030404F0004421F0004100944FF07C
:1005B000000B23F0004350EA01045ED052EA03042A
:1005C0005BD0C3F30A54C1F30A552C44A4F2F334AC
:1005D0000194A0FB0254C1F3130141F48011C3F351
:1005E000130343F4801301FB024400FB034E840A0F
:1005F000970A44EA815447EA8357A4FB07680295A7
:100600008D0A05FB07854FEA932C04FB0C54270544
:10061000029D4FEA065847EA1637B5EB08056EEB20
:10062000070C870E920E47EA811742EA8312A7FB56
:100630000201B6EB0B0164EB00042B0D43EA0C3313
:100640005E1844EB1C50DA465146E7FB0201C5F345
:1006500013044FEA0B3343EA14534FEA0432019C6C
:1006600043EA0603A4F10C040294009CCDE900B413
:10067000FFF746FF03B0BDE8F08F00200146F9E721
:100680002DE9F04D81EA030404F0004B21F0004510
:1006900014464FF0000A23F0004150EA050220D032
:1006A00054EA01021DD0C5F30A570246C5F31303ED
:1006B000C1F31300C1F30A5640F4801543F48013CC
:1006C000A7EB0608101BD64608F2FD3873EB0500B1
:1006D00002D308F1010801E092185B41B8F1000F64
:1006E00003DA00200146BDE8F08D00204FF48011B0
:1006F000064684460EE0171B73EB050705D3121B55
:1007000063EB050306434CEA010C49084FEA30004D
:1007100092185B4150EA0107EDD152EA030012D072
:1007200082EA040083EA0501084305D0101BAB41AF
:1007300006D20122002306E000224FF0004302E02F
:100740006FF0010253101AEB06004CEB085110EB4E
:100750000A0041EB0B01BDE8F04DFFF7C2BEC1F34B
:100760000A52C1F3130140F2FF3341F480119A425F
:1007700002DA00200146704740F233439A42A2F267
:10078000334202DC5242FFF73DBDFFF789BE000055
:1007900030B5041E71F1000404DB4FF00044404208
:1007A00064EB0101141E73F1000405DB1C464FF0DD
:1007B0000043524263EB0403994208BF904230BDAC
:1007C000064C074D06E0E06840F0010394E807009E
:1007D00098471034AC42F6D3FFF7AEFC54850008BE
:1007E0007485000870B58C1810F8015B15F00703CC
:1007F00001D110F8013B2A1106D110F8012B03E0BA
:1008000010F8016B01F8016B5B1EF9D12B0705D4C1
:100810000023521E0DD401F8013BFAE710F8013B0A
:10082000CB1A921C03E013F8015B01F8015B521E26
:10083000F9D5A142D8D3002070BD00000FA003F06D
:1008400043FE04F0CFFA48B112A000BF03F03CFE13
:10085000174C184D0026606810B103E016A0F5E7AC
:1008600004F058FC2878012804D10821A06805F07C
:100870007BFC2E70642004F041FBECE741533630E2
:1008800038D6B8CEC6C4A3BFE9B2E2CAD4BFAACA9A
:10089000BC0D0A004153363038D6B8CEC6C4A3BF0B
:1008A000E9B3F5CABCBBAFCAA7B0DC0D0A000000B3
:1008B000A8200020591F00204153363038D6B8CE2A
:1008C000C6C4A3BFE9B3F5CABCBBAFB3C9B9A60DD3
:1008D0000A0000002DE9F04100254FF4FA764FF4AC
:1008E000C877052D5AD2DFE805F003152D496500BC
:1008F000641CE4B239A003F0E7FD03F099F9F0B904
:10090000012003F077F9D0B937A003F0DDFD002412
:10091000012510E0641CE4B236A003F0D5FD03F01D
:1009200087F960B9022003F065F940B92EA003F001
:10093000CBFD00240225384604F07EFAD1E703F00F
:1009400047FB2BE02FA003F0BFFD03F0CDF905001E
:100950000ED030A003F0B8FD284603F039FB002488
:100960002546304604F068FA384604F065FABFE7D9
:100970002BA003F0A9FD032530460DE02BA003F0CA
:10098000A3FD304604F058FA03F0C8F968B1002519
:1009900003F01EFB4FF47A7004F04EFA384604F070
:1009A0004BFA0A2C9DD1BDE8F08124A003F08CFD08
:1009B0000425EFE726A003F087FD0121022003F0C4
:1009C000C7F908B10025BAE726A003F07DFDBDE810
:1009D000F04140F2DC5004F02FBA0000C7EBB0B495
:1009E000CAD6D6B80D0A0000D6B8CEC6D5FDB3A378
:1009F0000D0A0000C7EBD4D9B0B4D2BBB4CE0D0AF7
:100A000000000000B6D4B1C8C1BDB4CED6B8CEC6C1
:100A10000D0A0000B6D4B1C8CAA7B0DC0D0A0000A8
:100A2000B6D4B1C8B3C9B9A60D0A0000C9FAB3C992
:100A3000D6B8CEC6C4A3B0E50D0A0000C9FAB3C942
:100A4000D6B8CEC6C4A3B0E5B3C9B9A60D0A000096
:100A5000C4ACC8CFD1A1D4F14944CEAA31200D0AEB
:100A600000000000C2BCC8EBD6B8CEC6B3C9B9A658
:100A70000D0A0000FEE7704710B509A003F024FD41
:100A800003F09EF840B103F0A3FA00BFBDE81040A8
:100A900040F2DC5004F0D0B906A003F015FDF5E7F4
:100AA000C9BEB3FDD6B8CEC6BFE2BFAACABC0D0A46
:100AB00000000000C7E5BFD5D6B8CEC6BFE2B3C9B7
:100AC000B9A60D0A0000000021283CD2DFE800F0A2
:100AD00011131517191B1D1F212325273B3B3B3BDA
:100AE00027293B3B3B2B3B3B2D2F3133353B3B37C2
:100AF000390016A070471AA070471EA0704722A0A8
:100B0000704726A070472AA070472EA0704732A0D9
:100B1000704736A070473AA070473EA0704742A089
:100B2000704746A070474AA070474EA0704752A039
:100B3000704756A070475AA070475EA0704762A0E9
:100B4000704766A070476AA07047000020202020F0
:100B50002020204F4B2020202020202000000000BB
:100B600020CAFDBEDDB0FCBDD3CAD5B4EDCEF320A6
:100B700000000000B4ABB8D0C6F7C9CFC3BBD3D018
:100B8000CAD6D6B800000000C2BCC8EBD6B8CEC6E4
:100B9000CDBCCFF1CAA7B0DC0000000020D6B8CE93
:100BA000C6CCABB8C9BBF2CCABB5AD2000000000E1
:100BB00020D6B8CEC6CCABCAAABBF2CCABBAFD200D
:100BC000000000002020D6B8CEC6CDBCCFF1CCAB03
:100BD000C2D220200000000020D6B8CEC6CCD8D586
:100BE000F7B5E3CCABC9D920000000002020D6B86F
:100BF000CEC6B2BBC6A5C5E4202020200000000060
:100C000020C3BBD3D0CBD1CBF7B5BDD6B8CEC62091
:100C100000000000202020CCD8D5F7BACFB2A2CA5D
:100C2000A7B0DC20000000002020C9BEB3FDC4A393
:100C3000B0E5CAA7B0DC20200000000020C7E5BF57
:100C4000D5D6B8CEC6BFE2CAA7B0DC2000000000EF
:100C5000BBBAB3E5C7F8C4DACEDED3D0D0A7CDBCDB
:100C60000000000020B6C1D0B4464C415348B3F652
:100C7000B4ED202000000000202020CEB4B6A8D281
:100C8000E5B4EDCEF3202020000000002020CEDED1
:100C9000D0A7BCC4B4E6C6F7BAC520200000000047
:100CA00020BCC4B4E6C6F7C4DAC8DDB4EDCEF32088
:100CB0000000000020BCC7CAC2B1BED2B3C2EBB4B0
:100CC000EDCEF3200000000020202020D6B8CEC6B4
:100CD000BFE2C2FA202020200000000020202020B7
:100CE000B5D8D6B7B4EDCEF3202020200000000008
:100CF00020B7B5BBD8C8B7C8CFC2EBD3D0CEF3208E
:100D00000000000072B6FEE706490020C8610648F0
:100D1000016941F004010161016941F04001016193
:100D2000704700009030002000200240064A002159
:100D3000D16106490A6942F002020A614861086904
:100D400040F04000086170479030002000200240D1
:100D5000044B0022DA61044A136943F00103136172
:100D6000018070479030002000200240144800228B
:100D7000C168CB06134904D5CA6942F00202CA61B0
:100D80001022C3685B0705D5CB6943F00103CB6133
:100D900042F00402C369DB0707D0CB6943F00403C8
:100DA000CB61C16921F00101C161A2F580710139F6
:100DB00001D0C2607047C16921F00101C161704773
:100DC000002002409030002070B5054600F05CFD28
:100DD0000646114C09E0681C07D025B100F054FD0F
:100DE000801BA84201D9032070BDE068C007F2D182
:100DF000E068800601D52020E060E068C00605D4E8
:100E0000E069C00702D1E068400703D5FFF7AEFFF5
:100E1000012070BD002070BD0020024010B502F01E
:100E2000CDFA10232F220021202002F05BFC30227B
:100E300010230021104602F055FC1023312200211E
:100E4000402002F04FFC102332220021502002F0FB
:100E500049FC102335221946202002F043FC1023C0
:100E600036221946302002F03DFC1023312219466B
:100E7000402002F037FC102332221946502002F0A5
:100E800031FC202110233322084602F02BFC1023D2
:100E900034222021302002F025FC10233122202191
:100EA000402002F01FFC102332222021502002F0AB
:100EB00019FC102338223021602002F013FC10238B
:100EC00039223021702002F00DFCBDE8104002F004
:100ED0008FBB000008B502F071FA10230D2200212B
:100EE000302002F0FFFB102324220021402002F0DA
:100EF000F9FB102300221946104602F0F3FB1023E1
:100F000001221946184602F0EDFB102307A21946EC
:100F1000202002F0A2FC02F06BFB054800900823A1
:100F200050220421302002F078FC08BD3A00000075
:100F3000691F00202DE9FE4300252E4602F03EFAEF
:100F4000102302220021202002F0CCFB10230722D4
:100F50000021302002F0C6FB102313220021402084
:100F600002F0C0FB10230D220021502002F0BAFB3A
:100F700010231D221946002002F0B4FB10231E226C
:100F80001946184602F0AEFB02F032FBDFF8608033
:100F9000184F00240022434628463146FFF792F9B5
:100FA00005460E4602460B4613A101A803F09CFA23
:100FB00004F12000C2B2C0B22023102102F024FAB2
:100FC000102301AA3021582002F047FC02F010FB48
:100FD0000823502204213020009702F01EFC0A2032
:100FE00000F088FA641CE4B2502CD3D3BDE8FE8331
:100FF0000000F43F691F002025332E3066252500B0
:101000002DE9FE4300252E4602F0D8F910231322C5
:101010000021202002F066FB10230D220021302049
:1010200002F060FB102308220021402002F05AFB4E
:10103000102309220021502002F054FB1023192212
:101040001946002002F04EFB1023212219461846B3
:1010500002F048FB02F0CCFADFF86080184F002461
:101060000022434628463146FFF72CF905460E4636
:1010700002460B4613A101A803F036FA04F1200042
:10108000C2B2C0B22023102102F0BEF9102301AA7F
:101090003021582002F0E1FB02F0AAFA0823502286
:1010A00004213020009702F0B8FB0A2000F022FA59
:1010B000641CE4B2502CD3D3BDE8FE830000F43F9F
:1010C000691F002025332E30662525002DE9FE43BB
:1010D00000252E4602F072F9102313220021202051
:1010E00002F000FB10230D220021302002F0FAFA5A
:1010F00010230A220021402002F0F4FA10230B22D0
:101100000021502002F0EEFA10231F221946002081
:1011100002F0E8FA102320221946184602F0E2FAFB
:1011200002F066FADFF86080184F00240022434680
:1011300028463146FFF7C6F805460E4602460B46DE
:1011400013A101A803F0D0F904F12000C2B2C0B28B
:101150002023102102F058F9102301AA3021582031
:1011600002F07BFB02F044FA0823552204212B20D5
:10117000009702F052FB0A2000F0BCF9641CE4B2B4
:10118000502CD3D3BDE8FE830000F43FE91F0020BC
:1011900025332E306625250010B502F00FF91023F7
:1011A0002D220021202002F09DFA1023232200216D
:1011B000302002F097FA002210231146402002F05E
:1011C00091FA102301220021502002F08BFA102303
:1011D00025221946002002F085FA102326221946FE
:1011E000184602F07FFA102327221946202002F029
:1011F00079FA102328221946302002F073FA1023BE
:1012000016A21946402002F028FB10231A222021A2
:10121000002002F067FA102300222021184602F075
:1012200061FA202110230122084602F05BFA102304
:101230000AA22021302002F010FB102303223021CB
:10124000602002F04FFA10232C223021702002F08F
:1012500049FABDE8104002F0CBB900003A000000A6
:1012600038B502F0ABF8102401231A4600210820FB
:10127000009402F0A3FA0123022200212820009406
:1012800002F09CFA0123032200214820009402F07E
:1012900095FA102329220021602002F023FA10235E
:1012A0002A220021702002F01DFA012304221021BD
:1012B0000820009402F082FA012305221021282040
:1012C000009402F07BFA01230622102148200094AA
:1012D00002F074FA102331221946602002F002FA5B
:1012E000102332221946702002F0FCF90123072254
:1012F00020210820009402F061FA01230822202115
:101300002820009402F05AFA0123092220214820C3
:10131000009402F053FA102337222021602002F0BB
:10132000E1F9102300222021702002F0DBF91023C4
:1013300010A23021082002F090FA0123002230216F
:101340002820009402F03AFA10230BA23021482002
:1013500002F083FA102303223021602002F0C2F948
:1013600010232C223021702002F0BCF9BDE8384057
:1013700002F03EB92A0000002300000010B590F8EA
:1013800021100022022905D00421816380F8202049
:10139000012010BD01680B6823F00E030B6001688B
:1013A0000B6823F001030B6090F84030C46B0121FF
:1013B00001FA03F3636080F8211080F820201046C2
:1013C00010BD00002DE9F05F90F8211000240229E3
:1013D00003D004218163012485E001680A6822F0BA
:1013E0000E020A6001680A6822F001020A603F4E9C
:1013F0003E4FB215DFF8F4C0DFF8F090DFF8ECA054
:10140000DFF8E8B0DFF8E4E00168783F1301150287
:10141000ACF1640CA9F15009AAF13C0AABF1280B1C
:10142000AEF1140E4FF48018B14227D9B9420ED054
:10143000614512D049451DD0514518D0594518D0A5
:10144000714501D1424615E0294EB14201D1012238
:1014500010E0274E1436B14201D110220AE0244E8A
:101460002836B14206D0224A3C32914201D11A4676
:1014700000E02A461E49091F0A602BE0B94213D03A
:10148000614517D0494522D051451DD059451DD041
:10149000714501D142461AE0B14202D14FF080724B
:1014A00015E0134EB14201D1012210E0104E143666
:1014B000B14201D110220AE00D4E2836B14206D0C9
:1014C0000B4A3C32914201D11A4600E02A460749B4
:1014D00080394A60012180F82110002180F8201015
:1014E000416B01B188472046BDE8F09F8000024073
:1014F0000804024070B5044600F0C6F90546601CB9
:1015000002D004480078044400F0BEF9401BA04219
:10151000FAD370BDD42000202DE9F04705462648B7
:101520000F460126017E01290FD001218146017657
:101530002868DFF888804CF25034022808D0A24690
:101540002046FFF741FCA8B131E00220BDE8F0875A
:101550002046FFF739FC08BB0120FFF7D5FB2046EA
:10156000FFF732FCD8F81010064621F00401C8F845
:1015700010101CE04FF0FF303860AC6811E02046DE
:10158000FFF7D4FB5046FFF71FFCD8F810100600F9
:1015900021F00201C8F8101001D03C6007E004F50A
:1015A0000064D5E9020100EBC120A042E7D8002188
:1015B00089F818103046C9E790300020002002401A
:1015C0000348016941F0800101610020704700007B
:1015D000002002402DE9F05F07461C4888460024A1
:1015E000017E15461E46012909D00121814601765A
:1015F0004CF2503A5046FFF7E7FB18B122E00220C8
:10160000BDE8F09F012F02D0022F00D00427D3465F
:10161000DFF83CA0220128463146FEF7F3FD81B2F7
:1016200008EB4400FFF794FB5846FFF7CDFBDAF8D0
:10163000102022F00102CAF8102018B9641CE4B28C
:10164000BC42E7D3002289F81820D9E79030002067
:1016500000200240064900200A69120607D5054A03
:101660004A60054A4A600969090600D501207047A9
:101670000020024023016745AB89EFCD2DE9F84FEB
:10168000DFF8C8910024A9F1040B23460F2709F1C4
:10169000040AABF1040ED1E00125A54006EA0502DB
:1016A000AA4276D1DFF8A8C14E68A6EB0C086645C1
:1016B0002BD00DDC032E34D005DC36B3012E19D02F
:1016C000022E2FD11BE0112E16D0122E2AD119E096
:1016D000B8F5881F19D006DCB8F5803F15D0B8F5ED
:1016E000801F1FD111E0B8F5001F0ED0B8F5041F00
:1016F00018D10AE0CB6815E0CB681B1D12E0CB685F
:1017000008330FE0CB680C330CE08B682BB1012B56
:101710004FF0080303D0456104E0042302E00561B3
:1017200000E00023FF2A01D8064601E000F104068C
:101730004FEA840501D9A5F12005D6F8008007FA03
:1017400005FC28EA0C0803FA05F548EA0508C6F87E
:1017500000804D68ED0070D53E4DAE6946F0010643
:10176000AE61AD6924F0030605F0010500953A4D20
:1017700006EB050CDCF80850A607360F07FA06F84A
:1017800025EA0805DFF8D480404503D14FF0000872
:1017900025E052E0DFF8C880404502D14FF0010853
:1017A0001DE0DFF8C080404502D14FF0020816E08E
:1017B000DFF8B480404502D14FF003080FE0DFF8B6
:1017C000AC80404502D14FF0040808E0DFF8A0806B
:1017D000404502D14FF0050801E04FF0060808FA35
:1017E00006F848EA0508CCF808804D68D9F800608A
:1017F000ED024D4601D5164300E096432E604D683C
:10180000DAF80060AD02554601D5164300E0964374
:101810002E604D68DBF80060AD035D4601D51643D0
:1018200000E096432E604D68DEF80060ED037546DB
:1018300001D5164300E096432E60641C0A681646E4
:10184000E2407FF429AFBDE8F88F000008040140B2
:10185000000011100010024000000140000801408B
:10186000000C01400010014000140140001801402C
:10187000001C01408068084000D0012070470AB178
:10188000016170470904FBE7014880687047000068
:10189000D42000200248816802781144816070479A
:1018A000D4200020074810B5016841F01001016004
:1018B000032000F095F80F2000F006F800F03EF845
:1018C000002010BD0020024000B5014687B0002274
:1018D000192000F065F8192000F054F813488169C8
:1018E00041F400618161806905A900F400600690FF
:1018F000684600F01DF900F04BF90D490D4AB0FBA8
:10190000F1F10D48491E0260416040F2E7320021CA
:10191000C0E90321816000F08EFC10B1012007B006
:1019200000BD054800F0B6FCF9E7000000100240D9
:1019300040420F00002C0140443000200F4808B501
:10194000816941F001018161816901F0010100912A
:10195000C16941F08051C161C069002200F080502E
:1019600000900F21901E00F01BF80548416821F0FF
:10197000E06141F08071416008BD0000001002404C
:1019800000000140002809DB00F01F020121914006
:101990004009800000F1E020C0F80011704700000D
:1019A000F0B40E4B1B680C46C3F30223C3F10705CA
:1019B000042D00D90425191D072901D2002300E0B8
:1019C000DB1E012606FA05F1491E214099409E4082
:1019D000761E16403143F0BC02F09ABD0CED00E0DB
:1019E000064900F0070208684FF6FF03184040EA76
:1019F0000220034A10430860704700000CED00E02D
:101A00000000FA052DE9F0470F46050061D0434E6E
:101A1000306800F00700B84209D2306820F00700B3
:101A200038433060306800F00700B84251D1286870
:101A30003B4C810712D5400703D5606840F4E06055
:101A400060602878000703D5606840F460506060EB
:101A50006068A96820F0F000084360602878C0073B
:101A600028D06868012810D02168022810D0890782
:101A700000292EDA616821F0030101436160FFF75C
:101A800003FF804641F288390DE021688903EFE7C2
:101A90008901EDE7FFF7F8FEA0EB0801494502D9FF
:101AA0000320BDE8F0876068696800F00C00B0EBC7
:101AB000810FEFD1306800F00700B8420BD93068D1
:101AC00020F0070038433060306800F00700B8426B
:101AD00001D00120E5E72878400705D56068E9686E
:101AE00020F4E060084360602878000706D560684D
:101AF000296920F4605040EAC100606000F058F8A5
:101B00006168084AC1F30311515CC8400649086086
:101B100006480068FFF7D8FE0020C2E70020024018
:101B200000100240FE840008E0200020D8200020A1
:101B30000F2202600C4A536803F0030343605368AA
:101B400003F0F0038360536803F4E063C3605268FA
:101B50004FF4E06303EAD20202610448006800F037
:101B6000070008607047000000100240002002409B
:101B70000448054900684968044AC1F30221515CE0
:101B8000C8407047E0200020001002400E85000889
:101B90000448054900684968044AC1F3C221515C00
:101BA000C8407047E0200020001002400E85000869
:101BB0000E4A51680E4801F00C03042B11D0082B7B
:101BC0000FD10C48C1F38343C903C05C0AD55168E7
:101BD000084AC1F34041921E515C054A5043B0FB94
:101BE000F1F070470449484370470000001002407C
:101BF00000127A00EE84000800093D002DE9F84F3C
:101C0000040070D02078C04DC00749D06868C0F388
:101C10008100012807D06868C0F38100022809D13B
:101C20006868C00306D52868800339D56068002835
:101C3000E7D035E06068B0F5803F0BD010B1B0F56B
:101C4000A02F11D0286820F480302860286820F464
:101C5000802002E0286840F480302860606890B1FD
:101C6000FFF712FE06460AE0286840F4802028604C
:101C7000F0E700BFFFF708FE801B642873D82868D0
:101C80008003F7D50CE0FFF7FFFD064605E000BF37
:101C9000FFF7FAFD801B6428F0D828688003F7D48A
:101CA00020789A4E80074FF001094FF0000839D58F
:101CB000686810F00C0F07D06868C0F38100022834
:101CC00009D16868C00306D42868800714D5206944
:101CD000012808D110E02069B0B1C6F80090FFF7E4
:101CE000D3FD074605E00AE1FFF7CEFDC01B022841
:101CF000C4D828688007F7D52868616920F0F80003
:101D000040EAC10028600DE0C6F80080FFF7BCFD86
:101D1000074604E0FFF7B8FDC01B022823D8286857
:101D20008007F7D4207800072CD57948A169D9B16C
:101D3000C0F80090FFF7A8FD074604E0FFF7A4FDF8
:101D4000C01B02280FD8686A8007F7D571484FF486
:101D5000FA510068B0FBF1F0009000BF0098411EFE
:101D60000091FAD20EE080E0C0F80080FFF78CFD11
:101D7000074604E0FFF788FDC01B022875D8686A93
:101D80008007F7D42078400760D5E8690027C000B5
:101D900008D4E86940F08050E861E869012700F064
:101DA000805000905C480168C90513D401688346DF
:101DB00041F480710160FFF767FD824606E000BFD5
:101DC000FFF762FDA0EB0A0064284ED8DBF80000A4
:101DD000C005F5D5E06801280AD008B1052813D060
:101DE000286A20F001002862286A20F0040002E03E
:101DF000286A40F001002862E06841F2883B98B10F
:101E0000FFF742FD82460BE0286A40F0040028629A
:101E1000EEE700BFFFF738FDA0EB0A0159455AD89D
:101E2000286A8007F6D50CE0FFF72EFD824605E014
:101E3000FFF72AFDA0EB0A0159454CD8286A800714
:101E4000F6D41FB1E86920F08050E861E06988B3FA
:101E50006968C1F38101022944D00228C6F8608074
:101E600004D0FFF711FD044638E034E0FFF70CFD25
:101E7000074604E0FFF708FDC01B02282BD828689E
:101E80008001F7D4206AB0F5803F05D16868A16869
:101E900020F4003008436860D4E908010843696809
:101EA00021F4741108436860C6F86090FFF7ECFCF9
:101EB000044606E025E000BFFFF7E6FC001B022811
:101EC00009D828688001F7D51BE000BFFFF7DCFCCC
:101ED000001B022802D90320BDE8F88F2868800182
:101EE000F4D40EE00128F7D06868226A00F480314B
:101EF000914204D1616A00F47010884201D001203F
:101F0000EAE70020E8E7000000100240000042423B
:101F100080044242E02000200070004070B50400C0
:101F200009D0606A002540B125616561A56294F819
:101F3000510040B10CE0012070BD6068B0F5827FB7
:101F4000F4D0E561F2E784F85050204600F040F804
:101F5000022084F851002068016821F040010160EE
:101F6000A088218900F4827001F404410843A1890A
:101F700001F400610843217C01F002010843217D46
:101F800001F001010843218B01F400710843217F16
:101F900001F03801084394F8201001F08001084353
:101FA000218D01F40051084321680860A0690421D3
:101FB00001EA1040216848602068C16921F400618D
:101FC000C1616565012084F85100002070BD0000EA
:101FD00030B585B000240094019402940394006805
:101FE0001549884225D11548C16941F48041C16134
:101FF000C16901F480410491816941F00801816166
:1020000080690F4D00F0080004904FF420400090CC
:10201000022001900320039069462846FFF72EFB1B
:102020004FF48040CDE90004694628460294FFF74A
:1020300025FB05B030BD0000003800400010024014
:10204000000C01402DE9FF4F81B0044690F850008C
:1020500000260E9F1D4693464FF0010901280FD020
:102060004FF0010A84F850A0FFF70EFC804694F868
:102070005100616801280DD0B1F5827F08D103E0DD
:10208000022005B0BDE8F08FA16809B9042801D08D
:102090000226C9E00298002865D0BBF1000FFBD0F2
:1020A000002DF9D094F85100042802D0052084F8BE
:1020B000510000206065C4F838B0E587A587029913
:1020C0002163E586A586206460642068016849066E
:1020D00003D4016841F040010160E068B0F5006F91
:1020E000606803D0F0B3012D47D081E008B1012D25
:1020F0003CD1206B21680088C860206B801C206365
:10210000E08E401EE08631E02068816889070FD5A7
:10211000E18E69B1B9F1010F0AD1216B0988C16063
:10212000206B801C2063E08E401EE0864FF000098B
:1021300020688168C9070CD0E18F51B1C068A16BDC
:102140000880A06B801CA063E08F401EE0874FF0EA
:102150000109FFF799FBA0EB0800B84206D3781CF1
:1021600004D001E009E05BE003265BE0E08E00289C
:10217000CAD1E08F0028C7D140E0206B21680078E9
:102180000873206B401C2063E08E401EE0862FE029
:102190002068816889070FD5E18E69B1B9F1010F17
:1021A0000AD1216B09780173206B401C2063E08EFB
:1021B000401EE0864FF0000920688168C9070CD0F6
:1021C000E18F51B1C068A16B0870A06B401CA06387
:1021D000E08F401EE0874FF00109FFF755FBA0EBB1
:1021E0000800B84202D3781C02D0BAE7002FB8D05A
:1021F000E08E0028CCD1E08F0028C9D14246394674
:10220000204601F03BFE18B10126202060650BE05E
:10221000A06818B92068C16880680090606D08B136
:10222000012601E084F851A0002084F850003046D7
:1022300027E77047704710B5040003D094F83D00BD
:1022400010B107E0012010BD002084F83C002046BA
:1022500000F01EF8022084F83D00211D206801F0E6
:102260005DFF012084F8460084F83E0084F83F00BA
:1022700084F8400084F8410084F8420084F8430068
:1022800084F8440084F8450084F83D00002010BD27
:102290007047000090F83D10012901D001207047DF
:1022A000022180F83D100168CA6842F00102CA604C
:1022B00000680E4988420ED00D4988420BD0B0F11B
:1022C000804F08D00B49884205D00B49884202D084
:1022D0000A49884204D1816801F00701062903D028
:1022E000016841F00101016000207047002C0140AD
:1022F000003401400004004000080040000C004091
:10230000704770B50446006801694FF00005C94385
:10231000890715D4C168C943890711D4E91E016131
:1023200001202077206880698007204602D0FFF7CF
:10233000E7FF04E000F098F8204600F096F82577D3
:1023400020680169C943490717D4C168C9434907CF
:1023500013D46FF0040101610220207720688069A6
:1023600010F4407F204602D0FFF7CAFF04E000F0DF
:102370007BF8204600F079F8257720680169C94389
:10238000090716D4C168C943090712D46FF00801C0
:102390000161042020772068C0698007204602D0B0
:1023A000FFF7AEFF04E000F05FF8204600F05DF8B4
:1023B000257720680169C943C90617D4C168C94394
:1023C000C90613D46FF0100101610820207720683E
:1023D000C06910F4407F204602D0FFF791FF04E06F
:1023E00000F042F8204600F040F8257720680169A7
:1023F000C943C90708D1C168C943C90704D1891EA7
:102400000161204600F032F820680169C9430906DD
:1024100009D4C168C943090605D46FF08001016180
:102420002046FFF706FF20680169C943490609D421
:10243000C168C943490605D46FF0400101612046D7
:1024400000F01EF820680169C94389060BD4C168F1
:10245000C943890607D46FF0200101612046BDE819
:102460007040FFF7E7BE70BD7047704700680349D2
:10247000884201D1FFF70EBA70470000002C0140DE
:102480007047704770470000F8B501680446086857
:10249000CA684B6910F00F0F4FF0000559D003F0D8
:1024A000010602F49077374365D0C10705D0D10506
:1024B00003D5616C41F001016164410705D5D9077D
:1024C00003D0616C41F002016164810705D5D90731
:1024D00003D0616C41F004016164010707D502F08B
:1024E0002001314303D0616C41F008016164616CEB
:1024F00000293AD0800604D5900602D5204601F086
:1025000082FE20684069616CC0F38010090700D426
:1025100060B3204601F050FE20684069400621D596
:102520002068143050E8001F21F0400140E80012FC
:10253000002AF5D1E06BA8B16D494163E06BFEF76D
:1025400041FF002811D0E06B416B01B0BDE8F040C5
:10255000084783060FD593060DD52046BDE8F84001
:1025600001F051BE2046FFF78DFFF8BD2046FFF772
:1025700089FF6564F8BD266B2023012E7CD1C60639
:102580007AD5D60678D508684868009048694FF033
:102590000206400640D5E16B086840680004000C64
:1025A000E8D0A28D8242E5D9E085886920282DD027
:1025B00020680C3050E8001F21F4807140E80012C0
:1025C000002AF5D12068143050E8001F21F00101E5
:1025D00040E80012002AF5D12068143050E8001FAE
:1025E00021F0400140E80012002AF5D184F8423081
:1025F000256320680C3050E8001F21F0100140E8EE
:102600000012002AF5D1E06BFEF7B8FE6663A08DDC
:10261000E18D401A81B22AE0A08DE18D401A81B28D
:10262000E08D0028A6D00029A4D022680C3252E800
:10263000000F20F4907042E80007002FF5D12068C9
:10264000143050E8002F22F0010240E80027002F4C
:10265000F5D184F84230256320680C3050E8002F13
:1026600022F0100240E80023002BF5D166632046DB
:10267000FFF707FFF8BDFFE705062BD5150629D59F
:1026800094F841002128F5D1A068B0F5805F01D110
:102690002069B0B1206A411C21622168007848603D
:1026A000E08C401E0004000CE084E3D12068C16887
:1026B00021F08001C1602068C16841F04001C16023
:1026C000D8E7206A0088C0F308004860206A801CB0
:1026D0002062E5E74006CDD55006CBD5CA68204636
:1026E00022F04002CA6084F8413000F07BF9C1E773
:1026F000A941000870B5040004D094F841000025F9
:1027000010B106E0012070BD84F84050204600F072
:1027100023F8242084F841002068C16821F4005186
:10272000C160204601F0D0FD2068016921F490418C
:1027300001612068416921F02A0141612068C16876
:1027400041F40051C1606564202084F8410084F8A0
:1027500042006563002070BDF0B585B00024009490
:1027600001940294039403683F4F02203F490322DF
:102770003F4D4602BB4225D18B6943F480438B61B8
:102780008B6903F4804304938B6943F004038B61EA
:102790008969039201F0040104910102CDE900105E
:1027A00069462846FEF76AFFCDE900646946284677
:1027B0000294FEF763FF002205212520FFF7F0F8C1
:1027C00025204DE02B4FBB4221D1CB6943F4003390
:1027D000CB61CB6903F4003304938B6943F00403AA
:1027E0008B618969039201F0040104910421CDE910
:1027F000001069462846FEF741FF0820CDE9000495
:10280000694628460294FEF739FF05B0F0BD1A4D1F
:10281000AB42FAD1CB6943F48023CB61CB6903F49B
:10282000802304938B6943F008038B618969134DFE
:1028300001F00801CDE90321CDE900606946284691
:10284000FEF71CFFE814CDE900046946284602940F
:10285000FEF714FF002205212720FFF7A1F827200B
:10286000FFF790F8D1E70000003801400010024067
:10287000000801400044004000480040000C0140B6
:102880002DE9F843044690F84200994616460D4655
:10289000202802D00220BDE8F883ADB1A6B1002007
:1028A0006064222184F842102063FEF7EDFFA685C4
:1028B0008046E685A0684FF48057B84201D1206970
:1028C00020B12E46002526E00120E4E7002622E084
:1028D0004346002220212046CDF8009001F06BFDF8
:1028E00008B10320D7E726B1A068B8421BD038B1A1
:1028F00008E020684068C0F3080025F8020B07E0F4
:10290000206980B12068406800F07F0006F8010B64
:10291000E08D401EE085E08D0028D9D1202084F88C
:1029200042000020B7E720684068EFE790F84230A7
:10293000202B01D00220704721B11AB1002303637C
:1029400001F01EBD0120704770472DE9F843044691
:1029500090F841001F4616460D46202802D002205E
:10296000BDE8F8837DB176B100206064212084F851
:102970004100FEF789FFA6848046E684A068B0F592
:10298000805F02D003E00120EAE7206910B12E4603
:1029900000250EE000260CE08021204601F00BFD12
:1029A000A0B9AEB116F8010B21684860E08C401E5A
:1029B000E084E08C43464FF0000200970028EBD102
:1029C0004FF04001204601F0F6FC30B10320C7E78C
:1029D00035F8020BC0F30800E6E7202084F8410038
:1029E0000020BDE77047000008B500240A4E651EB0
:1029F0008DF800402B46012269460848FFF740FF4A
:102A00009DF80000312803D10421B06803F0ACFB2D
:102A1000642002F073FAEBE7A8200020B42F002016
:102A2000FEE700007CB50546EF208DF80000154C50
:102A300001208DF801006168080E8DF80200080C75
:102A40008DF80300080A8DF8040007208DF80510A2
:102A50008DF8060000268DF8076026700BE0012037
:102A600002F0EAF9207830B1267069460648FDF791
:102A700009FC002804D16D1E2D042D0CEFD100207F
:102A80007CBD000094200020702D002070B51C4DEE
:102A900010212846FEF7EEFE1A4CC00020212070BF
:102AA0002846FEF7E7FE217841EA800020704021A9
:102AB0002846FEF7DFFE217841EA400020708021A1
:102AC0002846FEF7D7FE2178084320700F280DD046
:102AD0000A20FEF70FFD20780F2807D0072807D01F
:102AE0000B2807D00D2807D00E2807D0002070BD76
:102AF000012070BD022070BD032070BD042070BD98
:102B0000001C0140581F002070B52B4E00242246A7
:102B100001213046FEF7B3FEFFF7B8FF050004D0F1
:102B2000FFF7B4FF0028FBD12C46012211463546A1
:102B30003046FEF7A4FE002202212846FEF79FFE43
:102B4000FFF7A4FF060005D0FFF7A0FF0028FBD188
:102B5000361DF4B2012202212E462846FEF78FFED2
:102B6000002204213046FEF78AFEFFF78FFF0500A2
:102B700006D000BFFFF78AFF0028FBD10835ECB272
:102B8000012204213046FEF77AFE00220821304659
:102B9000FEF775FEFFF77AFF050005D0FFF776FF19
:102BA0000028FBD10C35ECB2012208213046FEF79B
:102BB00066FE204670BD0000001C014086B0002566
:102BC000DFF83C922F462E46A8464FF0010BAA464E
:102BD000A9F12004FFF798FF2070401E102803D2AF
:102BE00017B90127FEF73CFB062D3AD26068C0BB3F
:102BF0002078411E032908D3421F032A05D3121F40
:102C0000032A02D30E2809D02BE00E2806D0A0F10B
:102C10000902032A05D2801E207006E084F800A075
:102C200003E0401F032800D22170217809F8051025
:102C30006D1CEDB243462A4672A0009601F044FC9A
:102C400099F8030099F8052099F804108DE8070019
:102C500099F8023099F8012099F8001070A001F05D
:102C600033FC20780C2806D1606820B9FEF794FA6E
:102C70004FF001084646062D7ED1207810287BD1E2
:102C8000B8F1010F01D1606808B1C6B3ACE000250E
:102C90004E465B48725D68A1801D01F025FC5849D5
:102CA0006648891DFDF7E2FA6D1CEDB2062DF0D3E2
:102CB000C4F826A00025564684F82AA05F4960A0E3
:102CC00001F002FCDFF88C8105225C49404602F0ED
:102CD0003BFF4FF47A70FEF70DFCFEF7C1FA574840
:102CE000052203A9066046600681404602F01EFFE9
:102CF00003A959A001F0E8FB0026B0463CE0FFE73D
:102D00006068002870D1052203A9524802F00EFF26
:102D100003A953A001F0D8FBFEF70CF95FF0000502
:102D2000374819F8052044A1801D01F0DDFB344926
:102D30004248891D0A30FDF799FA6D1CEDB2062D47
:102D4000EED33E4949A00A3101F0BEFB3B4803A93E
:102D50000A30FDF7A9FA98B1FEF752F9FEF780FAAA
:102D60003649C4F826A084F82AA041F80AAF002505
:102D7000C1F804A0A1F808A020780D280BD010E01D
:102D80000121A06803F0F0F9FEF7A0F94FF47A7082
:102D9000FEF7B0FBE2E7594627A0C4F804B001F003
:102DA00093FB2078082801D1FEF738F82078012815
:102DB00002D0022808D00CE0606801281BD1FDF782
:102DC00089FD84F800A016E06068012813D102F0A4
:102DD0003DF92078032804D1606801280BD1FDF764
:102DE0004BFE2078102806D16068012803D1FEF739
:102DF00037FAC4F804A0642002F080F8EAE6000084
:102E0000C82000204B65795F4E554D203D2025643C
:102E10002C25642C683A25642C673A25640D0A0039
:102E20006D613A25642C25642C25642C25642C25A1
:102E3000642C25640D0A000025640000002F00208A
:102E4000B4FDD0B4C8EBB5C4C3DCC2EBA3BA2573E0
:102E50000D0A0000000007086D696D613A257300D6
:102E60006D696D613A25730D0A000000B4FDD1E96A
:102E7000D6A4B5C4C3DCC2EBA3BA25730D0A000007
:102E80002DE9F0410E46074615460421052000F0C5
:102E900029F80021012000F0FDF880210A2000F02F
:102EA000EDF8002404E0395D092000F0F3F8641C1B
:102EB000B442F8D30321012000F0ECF8084C0520BF
:102EC00000F0BEF8641E01D04007F8D5222000F0C3
:102ED000B7F82870212000F0B3F86870BDE8F081E1
:102EE000A086010070B50C46054600F0A9F820EA5E
:102EF00004012846BDE8704000F0CCB82DE9FF5F22
:102F00000027FE25DDF838A016468B468146B846D8
:102F10000C2805D0B9F10E0F05D11227102001E0C1
:102F200077273020804647F08001022000F0B2F879
:102F300080210420FFF7D6FF0021012000F0AAF82D
:102F400080210A2000F09AF8002405E01BF8041004
:102F5000092000F09FF8641CB442F7D349460120D1
:102F600000F098F8B9F10C0F03D180210D2000F08A
:102F700085F8294E042000F063F80446761E04D03C
:102F8000E00702D114EA080FF4D080210D20FFF7EA
:102F9000A9FF36B1062000F053F810F01B0F0CD03B
:102FA000FE2580210C2000F069F80021012000F0AE
:102FB00071F804B02846BDE8F09F00253C40E007CA
:102FC00000D0FF25B9F10C0FEBD10A2000F038F842
:102FD00004460C2000F034F810F007004FEAC4015A
:102FE00004D008390844AAF8000001E0AAF800104B
:102FF00024B1122C04D91224002603E00124FBE79B
:10300000002605E0092000F01BF803998855761C7E
:10301000A642F7D3C5E70000E093040010B50122F3
:1030200011030548FEF72BFC0122BDE810401102F8
:103030000248FEF724BC0000000C014000100140D3
:1030400070B57E2101EA40000B4E40F080044FF441
:103050008055002229463046FEF711FC204600F03C
:10306000FBFE002000F0F8FE04460122294630460F
:10307000FEF705FC204670BD000C014070B50C4603
:103080000546FFF7DDFF40EA04012846BDE8704031
:10309000AFF300802DE9F0410E467E2101EA4004A5
:1030A0000A4F4FF48055002229463846FEF7E7FBC9
:1030B000204600F0D1FE304600F0CEFE29463846CC
:1030C000BDE8F0410122FEF7DABB0000000C014030
:1030D00010B503F03BF8124C124A0021A0601248D0
:1030E00001F062FF0F4AE060243200210F4801F036
:1030F0005BFF0C4A2061483200210D4801F054FF6B
:10310000084A60616C3200210A4801F04DFF054A0F
:10311000A06190320021084801F046FFE06110BD37
:10312000A82000203884000831440008BD2B000886
:103130002D3E0008E92900083D0800082DE9F04F60
:1031400085B0002553480095019502950395816946
:1031500041F010018161816901F0100104918169E0
:1031600041F080018161816901F0800104918169F0
:1031700041F004018161816901F0040104918169D8
:1031800041F480718161816901F4807104918169E8
:1031900041F040018161816901F040010491816940
:1031A00041F008018161816901F0080104918169A0
:1031B00041F0200181618069DFF8DC9000F020009F
:1031C000049000220F214846FEF759FBDFF8CCB0EF
:1031D000002240F203115846FEF751FBDFF8C0A071
:1031E0004FF48158002241465046FEF748FB00222A
:1031F00048F2F0012B48FEF742FB002248212A4802
:10320000FEF73DFB0F20012402268DE87100694680
:103210004846FEF733FAF0270097CDE90154694696
:103220004846FEF72BFA0320CDE9000402946946D4
:1032300058460394FEF722FA01AACDF8008082E8EE
:10324000700069465046FEF719FA01AA009782E815
:10325000700069461348FEF711FA20028DE87100EC
:1032600069465846FEF70AFA4820CDE90004029460
:1032700069460D480394FEF701FAE003CDE9000426
:103280000294694607480394FEF7F8F905B0BDE8D3
:10329000F08F000000100240001C014000100140AF
:1032A000000C01400020014000140140104810B5FE
:1032B0000E4901604FF48271416000218160C1605C
:1032C0004FF400720161C0E905122022C0E9072114
:1032D000416281620A21C162FEF720FE002803D00C
:1032E000BDE81040FDF70EBD10BD000000380040E5
:1032F000142F00200C4810B50A4901604FF4E13149
:103300004160002181600C22C160C0E9041281612A
:10331000C161FFF7EFF9002803D0BDE81040FDF7C9
:10332000F1BC10BD003801406C2F00200C4810B5D6
:103330000A4901604FF416514160002181600C225E
:10334000C160C0E904128161C161FFF7D3F90028AF
:1033500003D0BDE81040FDF7D5BC10BD00440040CF
:10336000B42F00200C4810B50A4901604FF4E13138
:103370004160002181600C22C160C0E904128161BA
:10338000C161FFF7B7F9002803D0BDE81040FDF791
:10339000B9BC10BD00480040FC2F002001B5FF2340
:1033A000012269460348FFF7D0FA002800D0012027
:1033B00008BD0000FC2F0020FEE7FEE730B400212E
:1033C000084B0A465FF0000003EBC004401CC0B28B
:1033D00062548028F8D3491CC9B20829F2D330BC02
:1033E00000F006B960210020CA0801F0070301219E
:1033F0009940044B03EBC003985C61EA0000C043B2
:1034000098547047602100202DE9F0430D46064690
:10341000802A13D8402B11D896420FD89D420DD840
:103420005C1B96420CD1002706E0E819C1B2304679
:1034300000F032F87F1CFFB2BC42F6DCBDE8F0833E
:10344000971B9D420BD1002406E03019C0B22946DB
:1034500000F022F8641CE4B2A742F6DCEEE7E1B229
:1034600001EB81014900F8B2B1FBF0F000F0FF0878
:1034700000244FF00A090BE004FB08F0B0FBF9F060
:103480002844C1B23019C0B200F006F8641CE4B29E
:10349000A742F1DCD2E70000CA0801F007030121CE
:1034A0009940034B03EBC000835C0B43835470478C
:1034B0006021002070B5474C012202212046FEF712
:1034C000DEF9012211462046FEF7D9F9424C0122CD
:1034D00040212046FEF7D3F9012208212046FEF7BD
:1034E000CEF93E4D4FF40044002221462846FEF717
:1034F000C6F96420FDF7FEFF012221462846FEF7AB
:10350000BEF90021AE2000F0DDF90021D52000F049
:10351000D9F90021502000F0D5F90021A82000F0B1
:10352000D1F900213F2000F0CDF90021D32000F097
:10353000C9F90021084600F0C5F90021402000F03B
:10354000C1F900218D2000F0BDF90021142000F008
:10355000B9F90021202000F0B5F90021022000F087
:10356000B1F90021A12000F0ADF90021C82000F040
:10357000A9F90021DA2000F0A5F90021122000F0BD
:10358000A1F90021812000F09DF90021EF2000F039
:1035900099F90021D92000F095F90021F12000F0DF
:1035A00091F90021DB2000F08DF90021302000F09E
:1035B00089F90021A42000F085F90021A62000F05F
:1035C00081F90021AF2000F07DF9BDE87040FFF7E0
:1035D000F5BE000000100140001401400020014031
:1035E0000246012000E05043491EC9B2FBD2704799
:1035F00070B5114E002400BF04F1B000C0B200212C
:1036000000F060F90021084600F05CF9002110206C
:1036100000F058F95FF0000506EBC5000121005DE0
:1036200000F050F96D1CEDB2802DF5D3641CE4B2AE
:10363000082CE1D370BD0000602100202DE9FF4F70
:103640001D460C468946580700D0012000EBD500E6
:1036500069084843203A00F0FF0A02F0FF0B0026F9
:1036600035E00C2D12D0102D14D0182D31D11A495F
:103670000BEBCB0001EB80004FF00008875D21468B
:10368000380600980AD5FFF707FF09E00BEB4B005F
:103690001249EFE7124901EB0B10EDE7FFF7A4FE2B
:1036A0007806641C070EE4B2A4EB0900A84205D119
:1036B00000984C46401CC0B2009006E008F10100A2
:1036C00000F0FF08B8F1080FD9D3761CF6B25645C2
:1036D000C7D3BDE8FF8F0000DC760008786C0008D7
:1036E000EC7000082DE9FF4F83B081460020CDE942
:1036F00001091C4688468B464FEAD30A50E00598DC
:103700000199604301EBD000C0B20090481CC0B2E8
:103710000025019042E0102C12D0182C15D0202C3E
:103720001AD0402C41D12249009801EB40200027BB
:10373000465D4146F007484614D0FFF7ADFE13E062
:103740001C49009801EB0010F1E700981A4900EBC2
:10375000C00001EBC000EAE717490098D83101EB3F
:10376000C010E4E7FFF740FE7F1C760808F1010077
:10377000FFB200F0FF08082FDBD309F10100029926
:1037800000F0FF09A9EB0100A04204D10BF10800F1
:10379000894600F0FF0B6D1CD846EDB2A542BAD3A6
:1037A000BAF1010101F0FF0AA9D207B0BDE8F08F1C
:1037B000580F002000000020800C00202DE9F04769
:1037C0001D46DDF8208091468A46074600244FEAD0
:1037D000580618E0281B401EC1B20A20FFF700FF60
:1037E000B9FBF0F00A21B0FBF1F201FB120070B15D
:1037F0003030C2B206FB0470C0B243465146FFF7F8
:103800001DFF641CE4B2AC42E4D3BDE8F08706FBC4
:103810000470C0B243463022F0E72DE9F0479846E5
:1038200017460C4682460026DDF8209011E021461E
:10383000504600F032F8554607E019F8060001211D
:1038400000F040F86D1CEDB2761CBD42F5D3641C4F
:10385000E4B24445EBD3BDE8F0872DE9F0411E46C4
:10386000154688460446C3F180070FE033464146BB
:103870002046FFF7E3FE04EB5600C4B2A74204DA89
:1038800008F10200002400F0FF086D1C2A78A2F164
:1038900020005E28EAD9BDE8F08110B50446B031B9
:1038A000C8B2002100F00EF8102040EA14100021E8
:1038B00000F008F804F00F00BDE81040002100F00F
:1038C00001B800002DE9F0411A4E054609B1012268
:1038D00000E0002208213046FDF7D1FF0022402100
:1038E0003046FDF7CCFF144F00240022012138465A
:1038F000FDF7C5FF280601D5012200E000220221C4
:103900003846FDF7BCFF012211463846FDF7B7FFE8
:103910006806641C050EE4B2082CE6D3012240219F
:103920003046FDF7ACFF3046BDE8F04101220821EA
:10393000FDF7A5BF00140140001001400321142031
:10394000FFF7D0BA10B51420FFF77AFB800705D136
:103950000321BDE810401420FFF790BB10BD70B5E7
:103960000646082188B000240846FFF7BBFA00216C
:103970000D20FFF78FFB80210E20FFF7B3FA932075
:103980008DF8040020208DF8050006A801AB0090FA
:10399000022219460C20FFF7B1FA05000DD10021D3
:1039A00001A8425C7254425C491C5440C9B20429CB
:1039B000F7D3405CA04200D0FE2580210E20FFF707
:1039C0005DFB08B0284670BD30B587B08DF80400A7
:1039D0008DF80510002001A9145C0D18401CC0B220
:1039E000AC700628F8D300200C181A5C401CC0B23A
:1039F00022720428F8D306A800900B460C220E2051
:103A0000FFF77CFA040004D10820FFF719FB000738
:103A100000D4FE2407B0204630BD10B5FFF7FEFAF3
:103A200000F056F8FFF78AFFFFF78CFFBDE8104063
:103A300000F04EB830B587B00D4630218DF8041037
:103A400001AC8DF8050002212046A21CFFF718FAF0
:103A500006A801AB0090042219460C20FFF74EFA8D
:103A600018B9BDF81810902902D0FE2007B030BD5B
:103A70000023E15CE9545B1CDBB2102BF9D3F5E7C2
:103A800030B50C460546082187B00846FFF72AFAEC
:103A900007210D20FFF7FEFA03211420FFF7EEFAAD
:103AA00006A801AB00908DF80450012219460C20A5
:103AB000FFF724FA002809D1BDF81810102905D104
:103AC0009DF8041021709DF80510617007B030BD9D
:103AD00070B50122204D140221462846FDF7CFFE85
:103AE0000220FDF707FD002221462846FDF7C7FE0C
:103AF0000220FDF7FFFC012221462846FDF7BFFE0C
:103B00000220FDF7F7FC0F210120FFF7C3FA022086
:103B1000FDF7F0FC3D211120FFF7BCFA1E212D20FE
:103B2000FFF7B8FA00212C20FFF7B4FA8D212A20E4
:103B3000FFF7B0FA3E212B20FFF7ACFA4021152009
:103B4000FFF7A8FAFFF7FAFE0220FDF7D3FCBDE865
:103B50007040FFF7F7BE00000010014010B588B0BC
:103B600093218DF8041070218DF8051000218DF837
:103B70000A1001AA5418435CA370445C9DF80A30F3
:103B8000491C6340C9B28DF80A300429F2D30721D9
:103B900001A8D21DFFF774F908210846FFF7A2F922
:103BA00006A801AB0090092219460C20FFF7A6F9E0
:103BB00018B9BDF81810182900D0FE2008B010BDA3
:103BC00010B500F0E9F900F0C5F90120FFF7E6FBB8
:103BD000032000F0F1F90D20FFF7E0FB112000F0C9
:103BE000D1F94FF4FA60FEF71DFF08B1407A10BD1D
:103BF000FF2010BD10B5044600F0CEF900F0AAF980
:103C00000120FFF7CBFB042000F0D6F90220FFF7DC
:103C1000C5FB2046FFF7C2FBE01D00F0B3F94FF4EF
:103C2000FA60FEF7FFFE08B1407A10BDFF2010BD1C
:103C300010B500F0B1F900F08DF90120FFF7AEFBEF
:103C4000032000F0B9F90120FFF7A8FB052000F0E0
:103C500099F94FF4FA60FEF7E5FE08B1407A10BD1D
:103C6000FF2010BD2DE9F0411E4614460D460746C3
:103C700000F092F900F06EF90120FFF78FFB0820A9
:103C800000F09AF91B20FFF789FB3846FFF786FB07
:103C9000280AFFF783FBE8B2FFF780FB200AFFF753
:103CA0007DFBE0B2FFF77AFB07EB1520E9B2084491
:103CB00000EB1420E1B20844243000F063F94FF423
:103CC000FA60FEF7AFFE58B1C27A837A417A02EB0E
:103CD00003223280427B007B02EB0020708000E0F8
:103CE000FF210846BDE8F08110B500F055F900F05D
:103CF00031F90120FFF752FB032000F05DF90320AA
:103D0000FFF74CFB072000F03DF94FF4FA60FEF797
:103D100089FE08B1407A10BDFF2010BD10B500F03B
:103D20003BF900F017F90120FFF738FB032000F002
:103D300043F90520FFF732FB092000F023F94FF487
:103D4000FA60FEF76FFE08B1407A10BDFF2010BD8B
:103D500070B50C46054600F01FF900F0FBF8012095
:103D6000FFF71CFB062000F027F90620FFF716FBE3
:103D70002846FFF713FB200AFFF710FBE0B2FFF71E
:103D80000DFB05EB1420E1B208440D3000F0FAF809
:103D90004FF4FA60FEF746FE08B1407A70BDFF208E
:103DA00070BD000070B51B495220FFF769FE194C29
:103DB000241F0028A0702CD117A000F085FBFE2541
:103DC000A570A01DFFF7CBFDA070002821D1A57024
:103DD000A01D00F00BF9A01DFFF7C0FEA070002889
:103DE00017D1A31DA5701A1D09216020FFF7ECFD56
:103DF000A07000280DD1A5700B496078FFF71AFE5E
:103E0000A070002805D1A570BDE870406420FDF7C2
:103E100071BB70BD5D1F00200D0AD1B0BFA8B3C932
:103E2000B9A60D0A0000000060250020084C094ECC
:103E3000002500BFFFF7B6FF2078012804D102213A
:103E4000B06802F091F92570642001F057F8F1E7AD
:103E5000591F0020A820002001B582B00A20009040
:103E60000123044A02A90448FEF7ECF80148C01EE9
:103E7000C0780EBD5C1F0020142F002038B50B4603
:103E8000009204460022802100F008F8002804D0A7
:103E9000606D40F020006065032038BD2DE9F843D7
:103EA0001E46914688460446089DFDF7EDFC401BE2
:103EB000351AFDF7E9FC074625480068C0F3CB300A
:103EC000684338E0701C37D0FDF7DEFCC01BA84209
:103ED00003D215B1009860B32CE02068416821F04E
:103EE000E00141606068B0F5827F0BD1A068B0F559
:103EF000004F02D0B0F5806F04D12068016821F036
:103F000040010160A06AB0F5005F09D12068016836
:103F100021F4005101602068016841F40051016002
:103F2000012084F85100002084F850000320BDE8EF
:103F3000F8830025401E00902068816838EA01005F
:103F400004D000214945BDD10020F0E70121F9E767
:103F5000E020002010B50A4C6068000EFFF71EFA42
:103F60006068C0F30740FFF719FAA088C0F3072084
:103F7000FFF714FA2079BDE81040FFF70FBA0000F0
:103F80009420002010B50446000AFFF707FAE0B2BB
:103F9000BDE81040FFF702BA10B54FF4C8710548EC
:103FA000FCF759F9EF20FFF7F9F9BDE810400120BF
:103FB000FFF7F4B9702D002010B50446C0F30720B8
:103FC000FFF7ECF9E0B2BDE81040FFF7E7B90000F9
:103FD00010B5FCF779FD0146BDE8104001A000F0E6
:103FE00073BA000025730D0A0000000010B51CA272
:103FF00086B00ECA03AC84E80E0000216A46435C1A
:104000001B0902F81130092B01D9373300E0303396
:1040100002F81130435C02EB410403F00F036370BC
:10402000092B01D9373300E03033491CC9B2637022
:104030000429E4D300208DF80800114603A8FCF7FA
:1040400033F90A4C20B90120207009A000F03CFA95
:104050002278694607A000F037FA06B010BD0000CC
:10406000433345413843304400000000591F0020CD
:104070006F6B000049443E3E3E25732C25640D0ABB
:104080000000000010B5502080F31188BFF34F8F5F
:10409000BFF36F8F02F04EFC18B104494FF080500F
:1040A0000860002080F3118810BD000004ED00E0DE
:1040B00030B58FB028216846FCF7CDF814210AA846
:1040C000FCF7C9F801210804CDE90010002402948E
:1040D00002250491CDE907504FF4E010099068469D
:1040E000FDF78CFD08B172B6FEE70F20CDE90A0599
:1040F0004FF48060CDE90C4002210AA80E94FDF730
:1041000081FC002801D072B6FEE70FB030BD7047C9
:104110000148FEF7F6B8000044300020F0B5026810
:104120001C4B1D4D1D4E1E4F1E4C4FF0804C984297
:1041300009D0A04207D0604505D0A84203D0B042C4
:1041400001D0B84204D122F0700E4A6842EA0E0251
:10415000984209D0A04207D0604505D0A84203D0BC
:10416000B04201D0B84203D122F44075CA682A4354
:104170004D6922F080022A4302608A68C2620A689E
:104180008262984201D0A04201D1096901630121F4
:104190004161F0BD002C01400004004000080040D7
:1041A000000C00400034014010B5406A0021C18578
:1041B000C184FEF767F910BD01680C3151E8002F8A
:1041C00022F4907241E80023002BF5D101681431EC
:1041D00051E8002F22F0010241E80023002BF5D125
:1041E000016B012909D101680C3151E8002F22F03F
:1041F000100241E80023002BF5D1202180F8421065
:1042000000210163704708B590F84210222901D0BF
:10421000022008BD82684FF480539A4201D101699F
:1042200021B1816A9A421BD04AB10AE00268816AD0
:104230005268C2F308020A80816A891C08E0026998
:1042400072B10268526802F07F020A70816A491CEA
:104250008162C18D491E0904090CC18503D01BE090
:1042600002685268F1E70168CA6822F02002CA6059
:104270000168CA6822F48072CA6001684A6922F043
:1042800001024A61202180F8421000214163026B43
:10429000012A03D0FEF758FB002008BD0163016826
:1042A0000C3151E8002F22F0100241E80023002BCE
:1042B000F5D101680A68D20602D50A6849680091FA
:1042C000818DFEF7DEF8E7E770B504460068016906
:1042D000E26821F44051114301612169A06808435B
:1042E000616908432168CA6841F20C639A4302433A
:1042F000CA6020684169A26921F44071114341619B
:104300001E492068884202D1FDF742FC01E0FDF71A
:104310002FFC00EBC00101EB0012606864218000FB
:10432000B2FBF0F3B3FBF1F36FF018067343B2FB8B
:10433000F0F5B2FBF0F605EB8305322303EB051530
:10434000B5FBF1F5B6FBF1F605F0F00505EB06154A
:10435000B2FBF0F6B2FBF0F0B0FBF1F06FF0180238
:10436000504306EB800003EB0010B0FBF1F0216836
:1043700000F00F002844886070BD00000038014044
:1043800081628285C28500214164222180F8421029
:10439000016921B10168CA6842F48072CA6001688B
:1043A0004A6942F001024A610068C16841F0200197
:1043B000C160002070472DE9F041984617460E462F
:1043C0000446069D27E0681C25D02DB1FDF75CFA58
:1043D000A0EB0800A8421ED920680C3050E8001F4E
:1043E00021F4D07140E80012002AF5D12068143081
:1043F00050E8001F21F0010140E80012002AF5D129
:10440000202084F8410084F84200002084F8400015
:104410000320BDE8F0812068006836EA000004D07F
:104420000020B842CFD00020F3E70120F9E70000D8
:1044300008B50D4E4FF0FF3440F6B8350094002318
:1044400001220F21B06801F0D5FE009007A000F016
:104450003BF80521002001F0EFFA2846FDF74AF865
:10446000642000F04BFDE9E7A8200020BDD3CAD5A9
:10447000CAC2BCFEB3C9B9A60D0A00000148FEF7C6
:1044800003B800006C2F00200B4982B00868026856
:10449000D243D2060CD40268406800904FF4C87032
:1044A000C8850648886206490120087002B0704736
:1044B000014802B0FDF7E8BFFC2F0020702D00205E
:1044C00094200020FEE700000FB4054B10B503A9AF
:1044D000044A029800F0FEF810BC5DF814FB0000DE
:1044E000A54E00085C2100200FB4084B10B504A9AC
:1044F00002AA039800F0EEF8044602A9002000F09A
:104500006CFC204610BC5DF814FB0000DB4D00087D
:104510000907090E002804DB00F1E02080F80014F0
:10452000704700F00F0000F1E02080F8141D704784
:1045300002E008C8121F08C1002AFAD1704770476C
:10454000002001E001C1121F002AFBD170470000CA
:104550002DE9FF5F82B00021DDE90430020DDDF8B6
:1045600040B0034318D044F61050A2F2FF32424349
:104570001514119801281FD0A5EB0B00401C5FEA11
:10458000000A4FF000064E4FDFF83891B046504613
:1045900015D5CAF1000413E0119801244AA301289B
:1045A00001D16FEA0B010298119AC0E90031C0E90C
:1045B000024206B0BDE8F09FCBF10000DFE7044601
:1045C0000021404A491842EB0450CDE9001012E0A6
:1045D000E00707D032463B4640464946FBF7DEFF40
:1045E0008046894632463B4610461946FBF7D6FFC1
:1045F00006460F466410002CEAD1DDE90401DDE92E
:104600000023BAF1000F06DAFBF7C8FF42464B461B
:10461000FBF7C4FF05E0FCF733F842464B46FCF7D6
:104620002FF804460E460022284BFCF7B1F803D8B9
:104630004FF0FF30014607E00022254B204631466F
:10464000FBF740FEFCF78BF8102409E0002C0ADB96
:104650000A220023FBF7F3FE039B30321A55641E37
:1046600050EA0102F2D1641C039AC4F1110314440C
:10467000119A012A03D0012208430DD10AE0084310
:1046800004D000204FF0110B119072E7A3EB0B0543
:104690006D1E0DE05B4504DD4FF0000205F10105E4
:1046A00004E003DA4FF00002A5F10105002AECD086
:1046B00002981199C0E90231C0E9004579E700008C
:1046C000000014400000F03F300000000000F04304
:1046D0000000E03F2DE9FF4F95B09A468846064618
:1046E0000025EEE1252877D100242746F94A01214B
:1046F000039400E0044316F8013F203B01FA03F065
:104700001042F7D130782A2811D06FF02F0330787B
:10471000A0F13002092A16D8039A44F0020402EBF1
:10472000820203EB42021044761C0390EFE758F834
:10473000042B0392002A03DA504244F400540390FD
:1047400044F00204761C30782E2816D116F8010F9A
:1047500044F004042A280DD06FF02F023078A0F125
:104760003003092B09D807EB870302EB4303C71873
:10477000761CF3E758F8047B761C30786C280FD051
:1047800006DC4C2817D068280DD06A2814D104E024
:10479000742810D07A280FD10DE044F400140AE0F8
:1047A00044F4801401E044F440147278824202D14F
:1047B00004F58014761C761C307866280BD013DC48
:1047C000582877D009DC002875D04528F6D046282F
:1047D000F4D047281AD193E118E0632835D0642833
:1047E00079D0652812D18BE1702873D008DC672856
:1047F000F1D069286FD06E280DD06F2806D1ACE0BB
:1048000073282CD0752874D0782853D05246179925
:1048100090476D1C54E1C4F30250022809D00328CC
:104820000DD0D8F8001004280DD00D6008F1040850
:1048300046E1D8F80010EA17C1E90052F6E7D8F8C7
:1048400000100D80F2E70D70F0E718F8041B8DF8EA
:10485000001000208DF80100EB46012003E058F81D
:1048600004BB4FF0FF3061074FF0000102D40DE0B0
:1048700009F101018946B9420FDA8145F8DB1BF8DD
:1048800009100029F4D108E009F1010189468142AB
:10489000FADB1BF809100029F6D103985346A0EB68
:1048A000090721463846179A00F080FA284400EBA1
:1048B000090507E044E008E10DE01BF8010B524652
:1048C00017999047B9F10109F7D253462146384666
:1048D000179AF2E039E00A21C4F302524FF0000BBC
:1048E0000091022A06D058F8040BC117032A09D0F8
:1048F0000AE023E008F1070020F00702F2E80201D5
:10490000904605E000B2C117042A01D140B2C11798
:10491000002906DA0A460021404261EB02012D22FD
:1049200002E0220504D52B228DF80420012203E0A9
:10493000E20701D02022F7E7914657E00A2100E084
:1049400010214FF0000B00910BE010214FF0000BF5
:1049500044F004040827009103E008204FF0000B06
:104960000090C4F30252022A05D058F8040B00212B
:10497000032A08D008E008F1070020F00702F2E857
:104980000201904603E080B2042A00D1C0B24FF089
:10499000000922072AD53278702A07D0DDF800C036
:1049A0008CF0100C5CEA0B0C05D00EE040228DF868
:1049B0000420012208E050EA010306D030238DF8DC
:1049C00004308DF8052002229146009B83F00803F5
:1049D00053EA0B030AD150EA010201D1620705D55F
:1049E00030228DF804204FF001097F1E3278582ABA
:1049F00004D039A20C920CAA02920BE03BA2F9E778
:104A00005B46009AFBF71BFD0C9B9B5C029A521EB7
:104A10000292137050EA0102F2D1029804A9081A16
:104A200000F1200B600702D524F4803400E0012758
:104A30005F4502DDA7EB0B0000E0002000EB0B015F
:104A4000009003984944401A0390E00306D453466B
:104A50002146179A039800F0A9F90544002706E0BB
:104A600001A85246C05D179990476D1C7F1C4F45A9
:104A7000F6DBE0030CD553462146179A039800F065
:104A800095F9054404E030205246179990476D1C73
:104A90000099481E00900029F5DC08E00298029970
:104AA00052460078491C0291179990476D1CBBF142
:104AB0000001ABF1010BF1DC5BE100F065F90544AD
:104AC000761C307800287FF40DAE19B02846BDE87A
:104AD000F08F000009280100303132333435363789
:104AE000383961626364656600000000303132333A
:104AF00034353637383941424344454600000000DA
:104B0000600700D4062708F1070020F00700F0E84E
:104B10000223804603F0004C5FEA0C0001D097A00E
:104B200009E0200501D596A005E0E00701D095A099
:104B300001E0AFF24C001390307823F00043652879
:104B40000CD006DC452809D046281DD047287FD147
:104B50003BE0662818D067287AD136E00021112F73
:104B600001DB112000E0781CCDE9000104A90CA8AC
:104B7000FFF7EEFCDDE90D010C9A4FF0000B07F199
:104B80000109109200914EE04FF000400097CDE9EE
:104B9000011004A90CA8FFF7DBFCDDE90D020C9B5A
:104BA0000F994FF0000B91461093009211B9791CA8
:104BB00000EB0109B7EB090003D4C0F1FF3B07F19B
:104BC0000109A9EB0700019042E0012F00DA01275B
:104BD0000021112F01DD112000E03846CDE9000150
:104BE00004A90CA8FFF7B4FCDDE90D010C9A0091B3
:104BF0004FF0000BB946109221070FD4009A4A4596
:104C000003DA914601E0A9F10109B9F1010F05DDCF
:104C1000109AA9F10101515C3029F4D0B84202DAAE
:104C200010F1040F03DA0121CDE9011010E0002892
:104C300003DC8344A9EB000102E0411C494500DD8F
:104C40008946A0EB0B00401C01904FF00040029001
:104C5000200705D40198484502DB4FF0FF30019052
:104C600000208DF84B0002980DF14B07B0F1004F7A
:104C700025D002200C902B200D90029800280CDAF1
:104C8000404202902D200D9007E00A210298FBF788
:104C9000C0FB3031029007F8011D0C99481E0C90A2
:104CA0000029F2DC02980028EFD1791E0D980870D7
:104CB000307800F0200040F0450007F8020D11A800
:104CC000C01BC01D02901398007800B1012000EBBA
:104CD0000901019801EBE071029801440398401A20
:104CE000401E0390E00306D453462146179A0398CA
:104CF00000F05CF805441398007818B152461799F3
:104D000090476D1CE00323D553462146179A03981C
:104D100000F04CF805441BE0BBF1000F07DB0098E6
:104D2000584504DD1098179910F80B0001E0179909
:104D300030205246904701980BF1010B401E05F1BF
:104D40000105019004D12E205246179990476D1C01
:104D5000B9F10001A9F10109DEDC05E017F8010B4A
:104D60005246179990476D1C0299481E02900029DF
:104D7000F4DC53462146179A03989EE62D00000066
:104D80002B000000200000002DE9F0410446002522
:104D90001E461746880404D405E039462020B04753
:104DA0006D1C641EF9D52846BDE8F0812DE9F0415F
:104DB000044600251E469046C80301D5302700E072
:104DC0002027880404D505E041463846B0476D1CCD
:104DD000641EF9D52846BDE8F0810A68531C0B60B3
:104DE0001070704770B54FF4C87210491048FDF745
:104DF0009DFD0F480068C16841F01001C1600B4D76
:104E000001206872FFF7C8F8FFF7A4F8094E0024E4
:104E1000305DFEF7C3FA641C0A2CF9DBC82000F0F1
:104E20000BF8687A002800D0012070BD702D00209A
:104E3000FC2F00209C20002070B5054600244FF474
:104E40007A7603E0304600F005F8641CAC42F9D3F2
:104E500070BD000071B54FF461754FF0E023104E46
:104E6000009819E02C46A04200D804469869614297
:104E700001EBC10110EBC10105D49A69824208DA45
:104E80008A42FADA05E08A1999698142FCDD914289
:104E9000FADC0098001B00900028E3D178BD0000E8
:104EA0004019010038B504468DF8000002230122A4
:104EB00069460248FDF749FD204638BD6C2F0020A9
:104EC00010B5FCF7EFFCFFF7F3F8FEF737F9FEF744
:104ED000EDF9FEF70FFAFEF729FAFEF743FAFEF7AF
:104EE000E9FAFBF7F7FFFEF798FD00F021F8FEF76F
:104EF000EFF800F039F8002010BD000010B5EFF316
:104F0000058149B9EFF3108131B9084909680229CF
:104F100005D1EFF3118111B16FF0050403E0002416
:104F200008B100F0CDFF204610BD00003421002064
:104F3000EFF3058058B9EFF3108040B909490868CC
:104F4000022801D030B109E0EFF3118030B16FF0E9
:104F50000500704701200860002070474FF0FF30C7
:104F6000704700003421002010B5EFF3058060B9D0
:104F7000EFF3108048B90B490868022802D00128D5
:104F800006D00BE0EFF3118040B16FF0050010BDCB
:104F90000220086001F05CF8002010BD4FF0FF30E7
:104FA00010BD000034210020F0B585B04FEA0103A8
:104FB0004FF00004EFF305810394A1BBEFF31081E0
:104FC00089BB21490968022902D1EFF3118151BB44
:104FD00048B3802618218DF8104004AD42B31768FD
:104FE00007B13D4697691FB139467F1E382F02D25F
:104FF0001779FF0702D0002005B0F0BD576907B14F
:10500000BE08D2F808C0BCF1000F0DD0D4685C2CEB
:1050100018D312693AB137B18DE8061032462946E5
:1050200001F049FC03900DE0D7685FB912694AB9F5
:1050300003AACDE90012B2B2294601F00FFC012803
:1050400000D003940398D7E73421002030B587B00F
:1050500000241AA0FFF738FA40F2DC55FEF7E8FD0D
:1050600098B90120FEF7C6FD60B905AB63220021A7
:105070000120FEF7F7FD60B115A0FFF725FA2846DD
:10508000FFF7DAFE15A0FFF71FFA052CE6D107B0EF
:1050900030BD641C214614A0FFF716FABDF8163087
:1050A000BDF8142015A16846FFF71EFA694617A03F
:1050B000FFF70AFA2846FFF7BFFEE0E7B2E2CAD4DC
:1050C000D6B8CEC6BFE2BFAACABC0D0A0000000017
:1050D000D1E9D6A4CAA7B0DC0D0A0000C7EBB0B472
:1050E000CAD6D6B80D0A0000D6B8CEC6D1E9D6A425
:1050F000B3C9B9A6B5DA2564B4CE00002049443A54
:10510000256420B5C3B7D63A2564200025730D0A5F
:105110000000000030B587B000241CA0FFF7D4F9D0
:1051200040F2DC55FEF784FD0028FBD10120FEF79C
:1051300061FD60B905AB632200210120FEF792FDFD
:1051400048B117A0FFF7C0F92846FFF775FE17A072
:10515000FFF7BAF9E6E7611C17A0FFF7B5F9BDF84C
:105160001630BDF8142019A16846FFF7BDF969464D
:105170001AA0FFF7A9F92846FFF75EFE2846FFF7B9
:105180005BFE18490120087007B030BDB2E2CAD4F6
:10519000D6B8CEC6BFE2BFAACABC0D0A0000000046
:1051A000D1E9D6A4CAA7B0DC0D0A0000C7EBB0B4A1
:1051B000CAD6D6B80D0A0000D6B8CEC6D1E9D6A454
:1051C000B3C9B9A6B5DA2564B4CE00002049443A83
:1051D000256420B5C3B7D63A2564200025730D0A8F
:1051E00000000000591F00202DE9F041134C0F462C
:1051F000054666692068001D00F026FD681C07D181
:1052000037B12168BDE8F0410D48091D00F078BDB7
:1052100020683544B5424560216805D2A068BDE8E4
:10522000F041091D00F054BD6068091D00F050FDFB
:10523000206B854200D22563BDE8F081E420002088
:10524000A03500202DE9F041054600F065FD2D4C0C
:105250002069401C206120682B4F10B1E06930B3F9
:105260002BE025602069012827D1002606EB860067
:1052700007EB800000F01EFD761C382EF6D3234885
:1052800000F018FD2148143000F014FD1F482830AC
:1052900000F010FD1D483C3000F00CFD1B48503064
:1052A00000F008FD194860601430A06005E0206837
:1052B000E96AC06A884200D82560E06A401CE06262
:1052C0006864E86AA169884200D9A06100EB8000A7
:1052D00007EB8000291D00F013FD00F03DFDE069A3
:1052E00000280CD02068E96AC06A884207D20849C1
:1052F0004FF080500860BFF34F8FBFF36F8FBDE852
:10530000F0810000E4200020F03000205035002023
:1053100004ED00E038B500F0FFFC104CA068C8B9FF
:105320000F4800F0C7FC0E48143000F0C3FC0C48D6
:105330002060143060600A4B00202833009003F195
:10534000500210210A2001F02DF8A06010B105A133
:1053500000F080FDBDE8384000F0FEBC20210020B8
:10536000B4350020546D72510000000030B4026C5E
:105370000B46002A0BD0C1681144C1604468A142A9
:1053800001D30168C16030BC1846FAF74BBF30BC8E
:1053900070472DE9F041856B174604460026026CE4
:1053A00082B1C7B1E068FAF73DFFE168206C091AE5
:1053B000E1602268914202D26168081AE060022F1F
:1053C00016D017E02068A8B9606801F017FB064600
:1053D000002060600EE0A068FAF724FF216CA0684E
:1053E0000844A0606168884204D32068A06001E09E
:1053F00005B16D1E6D1CA5633046BDE8F08110B58A
:10540000044690F8590058B101280CD002280FD05A
:10541000502080F31188BFF34F8FBFF36F8FFEE7EB
:10542000206B00F0ADFC2046BDE8104000F0A8BCA9
:1054300010BD00000F4840F64851420705D0C01D7E
:105440000C4A20F00700821A891A0B4A00230144F3
:10545000C2E900030839103A21F0070111604B60DE
:105460000B600B1AC0E9001393604FF000405360CB
:10547000D0607047843D002048210020144E154C18
:10548000A6F29C474FF08058DFF84C9012E000BF26
:1054900000F042FCF068C568281D00F0D5FB2069CB
:1054A000401E2061E068401EE06000F055FC284688
:1054B000FFF7A5FFE0680028EAD138680128F9D98C
:1054C000C9F80080BFF34F8FBFF36F8FF2E7000082
:1054D0008C350020E420002004ED00E070B51D466E
:1054E000049C51B1C4F80020C4E90F0101212046F9
:1054F00000F08CFF84F84C5070BD2460F4E72DE977
:10550000F0470E46DDE90984174682469100994628
:10551000089DA522206BFAF797FE6FF00301206B20
:1055200001EB8701084420F00707780707D05020D7
:1055300080F31188BFF34F8FBFF36F8FFEE7221800
:10554000315C82F83410315C11B1401C1028F6D364
:10555000002684F84360382D00D33725E562C4E97E
:105560001356201D00F0B1FB04F1180000F0ADFB54
:105570002461C5F138006462A061666584F85860F2
:105580004A465146384600F045FA2060B8F1000F0F
:1055900001D0C8F80040BDE8F087000030B51149DF
:1055A00000E011460A688242FBD34B685C188442D3
:1055B00003D1406818444860084643681C18944268
:1055C00009D1084C103C2468A24209D052681A4400
:1055D00042600A6812680260814200D0086030BDF3
:1055E0000460F9E74821002070B5002441600B4DAC
:1055F0000061914206D8D11A8269914206D2011DFA
:10560000686807E09A4203D2994201D3012403E07B
:10561000011D286800F05CFB204670BD20210020A1
:1056200010B5044600F078FBA06B28B15FF00004D1
:1056300000F092FB204610BD0124F9E730B589B097
:10564000304D55E00498002806DADDE90601059A98
:105650009047049800284BDB069C606910B1201D20
:1056600000F0F2FA02A800F0B9F8024604980A28FD
:105670003ED2DFE800F00505053D263705053D264D
:105680000598A169034601442046FFF7ADFF00B32A
:10569000616A20468847E069012829D100200090EE
:1056A0000598A169002342181946204601F0B0FA76
:1056B00078B9502080F31188BFF34F8FBFF36F8FFD
:1056C000FEE70598A06128B1811813462046FFF730
:1056D0008BFF0DE0502080F31188BFF34F8FBFF395
:1056E0006F8FFEE794F82C0010B9204600F048FBBD
:1056F000002204A9A86800F0DBFF0028A2D109B0AD
:1057000030BD0000202100202DE9FC410F46054658
:1057100000F0E2FC01A800F061F80446019818B11D
:1057200001F0E4F9BDE8FC81224EAFB17068006879
:10573000A8B30027291B3A46B06800F09FFB01F090
:10574000D5F90028EED11C494FF080500860BFF316
:105750004F8FBFF36F8FE5E7A542EBD801F0C6F995
:1057600030682746C068C468201D00F06DFAE06903
:10577000012810D1A0692B4641193A462046FFF76F
:1057800033FF40B100200346014600902A462046E0
:1057900001F03EFA20B1616A20468847C2E707E07F
:1057A000502080F31188BFF34F8FBFF36F8FFEE758
:1057B0000127BFE72021002004ED00E006484168F2
:1057C000096829B14168C968C968496801637047B7
:1057D0004FF0FF31FAE70000E420002070B50546E5
:1057E00001F0A2F8064E04463069844203D200F06C
:1057F00009F8012000E0002028602046346170BDD7
:1058000020210020F8B5194D1FE0C068C468066863
:10581000201D00F019FA616A20468847E0690128D6
:1058200013D1A0693044B04206D924616060211DC3
:10583000286800F04DFA08E0002003460146009079
:105840003246204601F0E4F938B1286801680029A1
:10585000DBD16968C5E90010F8BD502080F31188DC
:10586000BFF34F8FBFF36F8FFEE7000020210020B2
:1058700008484068401C4FF0500080F3118804D065
:10588000BFF34F8FBFF36F8FFEE7BFF34F8FBFF3B1
:105890006F8FFEE7502100200346002012B199438C
:1058A00002D070470B42FCD001207047074C2068A3
:1058B000016841B1C0680021D0F80000FFF724FF63
:1058C000FFF7BCFEF3E701210020F7E720210020CD
:1058D0002DE9F041044600F01FFA94F9455004F117
:1058E000240609E0606A48B1304601F0C7F808B103
:1058F00000F014FB6D1E6DB2002DF3DC4FF0FF368F
:1059000084F8456000F028FA00F006FA94F9445053
:1059100004F1100709E0206948B1384601F0AEF8FB
:1059200008B100F0FBFA6D1E6DB2002DF3DC84F8B7
:105930004460BDE8F04100F00FBA00002DE9F041ED
:105940000546002700F0C8FB314E306808B9FFF764
:1059500071FDF06805424BD1C5B3083568070ED01C
:1059600005F00700C0F108000544680707D0502083
:1059700080F31188BFF34F8FBFF36F8FFEE72DB316
:105980007068854234D82248103001460C6801E026
:1059900020460C466168A94202D221680029F7D14D
:1059A00031688C4224D0076821680160606808373C
:1059B000411B10290FD96019420708D0502080F3ED
:1059C0001188BFF34F8FBFF36F8FFEE710E0416088
:1059D0006560FFF7E3FD61687068401A7060B26847
:1059E000904200D2B060F06801430020C4E9000199
:1059F00001F07CF8780707D0502080F31188BFF3BE
:105A00004F8FBFF36F8FFEE73846BDE8F08100008F
:105A10003821002010B5031F4FF080741C601B1F3D
:105A200021F001011960191F024B0B601439403835
:105A30000A6010BD7158000870B53B4C0E464FF01F
:105A40000005B8B3012210212046FBF718FF3046AD
:105A5000FBF750FD002210212046FBF710FF01222A
:105A600080212046FBF70BFF3046FBF743FD002269
:105A700080212046FBF703FF012240212046FBF74F
:105A8000FEFE3046FBF736FD002240212046FBF7A4
:105A9000F6FE012220212046FBF7F1FE3046FBF7FF
:105AA00029FD002220212046FBF7E9FE6D1CFF2D79
:105AB000C8DD70BDFFE7012210212046FBF7DFFEA5
:105AC0003046FBF717FD002210212046FBF7D7FEDA
:105AD000012220212046FBF7D2FE3046FBF70AFDCB
